{
  "contractName": "Fp12CallTest",
  "abi": [
    {
      "anonymous": false,
      "inputs": [
        {
          "indexed": false,
          "internalType": "bytes",
          "name": "input",
          "type": "bytes"
        }
      ],
      "name": "Input",
      "type": "event"
    },
    {
      "anonymous": false,
      "inputs": [
        {
          "indexed": false,
          "internalType": "uint256[12]",
          "name": "res",
          "type": "uint256[12]"
        }
      ],
      "name": "Result",
      "type": "event"
    },
    {
      "inputs": [
        {
          "internalType": "bytes",
          "name": "input",
          "type": "bytes"
        }
      ],
      "name": "mul",
      "outputs": [
        {
          "internalType": "uint256[12]",
          "name": "",
          "type": "uint256[12]"
        }
      ],
      "stateMutability": "nonpayable",
      "type": "function"
    }
  ],
  "bytecode": "0x608060405234801561001057600080fd5b50610530806100206000396000f3fe608060405234801561001057600080fd5b506004361061002b5760003560e01c8063036ad00f14610030575b600080fd5b61004a600480360381019061004591906102b9565b610060565b60405161005791906103b7565b60405180910390f35b61006861013c565b600061007261013c565b7f4ab1d13eb726e5380b637edc5ad9784a1f240345a132cd4ff55c58dcf418bc50846040516100a1919061045b565b60405180910390a1610180816103008660006014600019f19150816100fb576040517f08c379a00000000000000000000000000000000000000000000000000000000081526004016100f2906104da565b60405180910390fd5b7f07580d7a1c7d796e510db03f41c92e4c1481df42b3c8ac0af7b13b4de0a400798160405161012a91906103b7565b60405180910390a18092505050919050565b604051806101800160405280600c90602082028036833780820191505090505090565b6000604051905090565b600080fd5b600080fd5b600080fd5b600080fd5b6000601f19601f8301169050919050565b7f4e487b7100000000000000000000000000000000000000000000000000000000600052604160045260246000fd5b6101c68261017d565b810181811067ffffffffffffffff821117156101e5576101e461018e565b5b80604052505050565b60006101f861015f565b905061020482826101bd565b919050565b600067ffffffffffffffff8211156102245761022361018e565b5b61022d8261017d565b9050602081019050919050565b82818337600083830152505050565b600061025c61025784610209565b6101ee565b90508281526020810184848401111561027857610277610178565b5b61028384828561023a565b509392505050565b600082601f8301126102a05761029f610173565b5b81356102b0848260208601610249565b91505092915050565b6000602082840312156102cf576102ce610169565b5b600082013567ffffffffffffffff8111156102ed576102ec61016e565b5b6102f98482850161028b565b91505092915050565b6000600c9050919050565b600081905092915050565b6000819050919050565b6000819050919050565b61033581610322565b82525050565b6000610347838361032c565b60208301905092915050565b6000602082019050919050565b61036981610302565b610373818461030d565b925061037e82610318565b8060005b838110156103af578151610396878261033b565b96506103a183610353565b925050600181019050610382565b505050505050565b6000610180820190506103cd6000830184610360565b92915050565b600081519050919050565b600082825260208201905092915050565b60005b8381101561040d5780820151818401526020810190506103f2565b8381111561041c576000848401525b50505050565b600061042d826103d3565b61043781856103de565b93506104478185602086016103ef565b6104508161017d565b840191505092915050565b600060208201905081810360008301526104758184610422565b905092915050565b600082825260208201905092915050565b7f6661696c20746f2066756e74696f6e2063616c6c210000000000000000000000600082015250565b60006104c460158361047d565b91506104cf8261048e565b602082019050919050565b600060208201905081810360008301526104f3816104b7565b905091905056fea264697066735822122045cfde0699c57af109f79ffd9b239d0b5f30f54b04ff30070def349e36ee816d64736f6c634300080f0033",
  "immutableReferences": {},
  "source": "// SPDX-License-Identifier: MIT\npragma solidity ^0.8.15;\n\n\ncontract Fp12CallTest {\n\n  event Input(bytes input);\n  event Result(uint256[12] res);\n\n  function mul (bytes memory input) public returns (uint256[12] memory) {\n    \n    bool success;  \n    uint256[12] memory result;\n\n    emit Input(input);\n\n    assembly {\n        success := call(not(0), 0x14, 0, input, 768, result, 384)\n    }\n\n    require(success, \"fail to funtion call!\");\n    emit Result(result);\n\n    return result;\n  }\n\n\n\n}\n",
  "sourcePath": "/home/yudonghyun/dev/etherium/truffle/contracts/fp12CallTest.sol",
  "compiler": {
    "name": "solc",
    "version": "0.8.15+commit.e14f2714.Emscripten.clang"
  },
  "schemaVersion": "3.4.8",
  "updatedAt": "2022-08-22T15:51:28.481Z",
  "networkType": "ethereum",
  "devdoc": {
    "kind": "dev",
    "methods": {},
    "version": 1
  },
  "userdoc": {
    "kind": "user",
    "methods": {},
    "version": 1
  }
}