{
  "contractName": "Fp12Mult",
  "abi": [
    {
      "anonymous": false,
      "inputs": [
        {
          "indexed": false,
          "internalType": "uint256[12]",
          "name": "res",
          "type": "uint256[12]"
        }
      ],
      "name": "Result",
      "type": "event"
    },
    {
      "inputs": [
        {
          "internalType": "bytes",
          "name": "input",
          "type": "bytes"
        }
      ],
      "name": "mul",
      "outputs": [
        {
          "internalType": "uint256[12]",
          "name": "",
          "type": "uint256[12]"
        }
      ],
      "stateMutability": "payable",
      "type": "function",
      "payable": true
    },
    {
      "inputs": [
        {
          "internalType": "uint256[12]",
          "name": "a",
          "type": "uint256[12]"
        },
        {
          "internalType": "uint256[12]",
          "name": "b",
          "type": "uint256[12]"
        }
      ],
      "name": "multiply",
      "outputs": [
        {
          "internalType": "uint256[12]",
          "name": "",
          "type": "uint256[12]"
        }
      ],
      "stateMutability": "payable",
      "type": "function",
      "payable": true
    }
  ],
  "bytecode": "0x608060405234801561001057600080fd5b50610803806100206000396000f3fe6080604052600436106100295760003560e01c806302cc249f1461002e578063036ad00f1461005e575b600080fd5b6100486004803603810190610043919061044d565b61008e565b604051610055919061053a565b60405180910390f35b6100786004803603810190610073919061060b565b6101d1565b604051610085919061053a565b60405180910390f35b610096610276565b60006100a0610276565b6100a8610299565b60005b600c81101561013b578681600c81106100c7576100c6610654565b5b60200201518282601881106100df576100de610654565b5b6020020181815250508581600c81106100fb576100fa610654565b5b602002015182600c8361010e91906106b2565b6018811061011f5761011e610654565b5b602002018181525050808061013390610708565b9150506100ab565b50610180826103008360006014600019f192508261018e576040517f08c379a0000000000000000000000000000000000000000000000000000000008152600401610185906107ad565b60405180910390fd5b7f07580d7a1c7d796e510db03f41c92e4c1481df42b3c8ac0af7b13b4de0a40079826040516101bd919061053a565b60405180910390a181935050505092915050565b6101d9610276565b60006101e3610276565b610180816103008660006014600019f1915081610235576040517f08c379a000000000000000000000000000000000000000000000000000000000815260040161022c906107ad565b60405180910390fd5b7f07580d7a1c7d796e510db03f41c92e4c1481df42b3c8ac0af7b13b4de0a4007981604051610264919061053a565b60405180910390a18092505050919050565b604051806101800160405280600c90602082028036833780820191505090505090565b604051806103000160405280601890602082028036833780820191505090505090565b6000604051905090565b600080fd5b600080fd5b600080fd5b6000601f19601f8301169050919050565b7f4e487b7100000000000000000000000000000000000000000000000000000000600052604160045260246000fd5b61031e826102d5565b810181811067ffffffffffffffff8211171561033d5761033c6102e6565b5b80604052505050565b60006103506102bc565b905061035c8282610315565b919050565b600067ffffffffffffffff82111561037c5761037b6102e6565b5b602082029050919050565b600080fd5b6000819050919050565b61039f8161038c565b81146103aa57600080fd5b50565b6000813590506103bc81610396565b92915050565b60006103d56103d084610361565b610346565b905080602084028301858111156103ef576103ee610387565b5b835b81811015610418578061040488826103ad565b8452602084019350506020810190506103f1565b5050509392505050565b600082601f830112610437576104366102d0565b5b600c6104448482856103c2565b91505092915050565b6000806103008385031215610465576104646102c6565b5b600061047385828601610422565b92505061018061048585828601610422565b9150509250929050565b6000600c9050919050565b600081905092915050565b6000819050919050565b6104b88161038c565b82525050565b60006104ca83836104af565b60208301905092915050565b6000602082019050919050565b6104ec8161048f565b6104f6818461049a565b9250610501826104a5565b8060005b8381101561053257815161051987826104be565b9650610524836104d6565b925050600181019050610505565b505050505050565b60006101808201905061055060008301846104e3565b92915050565b600080fd5b600067ffffffffffffffff821115610576576105756102e6565b5b61057f826102d5565b9050602081019050919050565b82818337600083830152505050565b60006105ae6105a98461055b565b610346565b9050828152602081018484840111156105ca576105c9610556565b5b6105d584828561058c565b509392505050565b600082601f8301126105f2576105f16102d0565b5b813561060284826020860161059b565b91505092915050565b600060208284031215610621576106206102c6565b5b600082013567ffffffffffffffff81111561063f5761063e6102cb565b5b61064b848285016105dd565b91505092915050565b7f4e487b7100000000000000000000000000000000000000000000000000000000600052603260045260246000fd5b7f4e487b7100000000000000000000000000000000000000000000000000000000600052601160045260246000fd5b60006106bd8261038c565b91506106c88361038c565b9250827fffffffffffffffffffffffffffffffffffffffffffffffffffffffffffffffff038211156106fd576106fc610683565b5b828201905092915050565b60006107138261038c565b91507fffffffffffffffffffffffffffffffffffffffffffffffffffffffffffffffff820361074557610744610683565b5b600182019050919050565b600082825260208201905092915050565b7f6661696c20746f2066756e74696f6e2063616c6c210000000000000000000000600082015250565b6000610797601583610750565b91506107a282610761565b602082019050919050565b600060208201905081810360008301526107c68161078a565b905091905056fea2646970667358221220c466c45350b0a5cb2185fe7445895b972ef5ac8b35f0c4fbf2931258d272203164736f6c634300080f0033",
  "immutableReferences": {},
  "source": "// SPDX-License-Identifier: MIT\npragma solidity <=0.8.15;\n\n\ncontract Fp12Mult {\n\n  event Result(uint256[12] res);\n\n  function mul (bytes memory input) public payable returns (uint256[12] memory) {\n    \n    bool success;\n    uint256[12] memory result;\n\n    assembly {\n      success := call(\n          not(0), // gas\n          0x14,   // callee address\n          0,      //  \n          input,  //   \n          768,    //    \n          result, //   \n          384     //   \n      )\n    }\n\n    require(success, \"fail to funtion call!\");\n    emit Result(result);\n\n    return result;\n  }\n\n    function multiply (uint256[12] memory a, uint256[12] memory b) public payable returns (uint256[12] memory) {\n\n        bool success;\n        uint256[12] memory result;\n        //uint256[12][2] memory input = [a, b];\n        uint256[24] memory input;\n        for (uint256 i = 0; i<12; i++) {\n            input[i] = a[i];\n            input[i+12] = b[i];\n        }\n\n        assembly {\n            success := call(\n            not(0), // gas\n            0x14,   // callee address\n            0,      //  \n            input,  //   \n            768,    //    \n            result, //   \n            384     //   \n            )\n        }\n\n        require(success, \"fail to funtion call!\");\n        emit Result(result);\n\n        return result;\n    }\n\n}\n",
  "sourcePath": "/home/yudonghyun/dev/etherium/truffle/contracts/Fp12Mult.sol",
  "compiler": {
    "name": "solc",
    "version": "0.8.15+commit.e14f2714.Emscripten.clang"
  },
  "schemaVersion": "3.4.8",
  "updatedAt": "2022-08-25T11:49:18.397Z",
  "networkType": "ethereum",
  "devdoc": {
    "kind": "dev",
    "methods": {},
    "version": 1
  },
  "userdoc": {
    "kind": "user",
    "methods": {},
    "version": 1
  }
}