{
  "contractName": "test_fp12",
  "abi": [
    {
      "inputs": [],
      "name": "p",
      "outputs": [
        {
          "internalType": "uint256",
          "name": "",
          "type": "uint256"
        }
      ],
      "stateMutability": "view",
      "type": "function",
      "constant": true
    },
    {
      "inputs": [
        {
          "internalType": "uint256[2]",
          "name": "g1",
          "type": "uint256[2]"
        },
        {
          "internalType": "uint256[2][2]",
          "name": "g2",
          "type": "uint256[2][2]"
        }
      ],
      "name": "pairingEval",
      "outputs": [
        {
          "internalType": "uint256[12]",
          "name": "",
          "type": "uint256[12]"
        }
      ],
      "stateMutability": "payable",
      "type": "function",
      "payable": true
    },
    {
      "inputs": [
        {
          "internalType": "uint256[12]",
          "name": "a",
          "type": "uint256[12]"
        },
        {
          "internalType": "uint256[12]",
          "name": "b",
          "type": "uint256[12]"
        }
      ],
      "name": "fp12Mul",
      "outputs": [
        {
          "internalType": "uint256[12]",
          "name": "",
          "type": "uint256[12]"
        }
      ],
      "stateMutability": "payable",
      "type": "function",
      "payable": true
    },
    {
      "inputs": [
        {
          "internalType": "uint256",
          "name": "k1",
          "type": "uint256"
        },
        {
          "internalType": "uint256",
          "name": "k2",
          "type": "uint256"
        }
      ],
      "name": "fp12Mul_test",
      "outputs": [
        {
          "internalType": "uint256[12]",
          "name": "",
          "type": "uint256[12]"
        }
      ],
      "stateMutability": "payable",
      "type": "function",
      "payable": true
    }
  ],
  "bytecode": "0x6080604052604051806040016040528060018152602001600281525060009060026200002d92919062000112565b50604051806040016040528060405180604001604052807f198e9393920d483a7260bfb731fb5d25f1aa493335a9e71297e485b7aef312c281526020017f1800deef121f1e76426a00665e5c4479674322d4f75edadd46debd5cd992f6ed815250815260200160405180604001604052807f090689d0585ff075ec9e99ad690c3395bc4b313370b38ef355acdadcd122975b81526020017f12c85ea5db8c6deb4aab71808dcb408fe3d1e7690c43d37b4ce6cc0166fa7daa8152508152506002906002620000fd92919062000157565b503480156200010b57600080fd5b5062000203565b826002810192821562000144579160200282015b828111156200014357825182559160200191906001019062000126565b5b509050620001539190620001ae565b5090565b826002800281019282156200019b579160200282015b828111156200019a578251829060026200018992919062000112565b50916020019190600201906200016d565b5b509050620001aa9190620001cd565b5090565b5b80821115620001c9576000816000905550600101620001af565b5090565b5b80821115620001f15760008181620001e79190620001f5565b50600201620001ce565b5090565b506000815560010160009055565b61134c80620002136000396000f3fe60806040526004361061003f5760003560e01c80633b671159146100445780635ab06747146100745780635cfd15ad146100a45780639ae8886a146100d4575b600080fd5b61005e60048036038101906100599190610b16565b6100ff565b60405161006b9190610c01565b60405180910390f35b61008e60048036038101906100899190610e15565b610427565b60405161009b9190610c01565b60405180910390f35b6100be60048036038101906100b99190610f06565b6106a2565b6040516100cb9190610c01565b60405180910390f35b3480156100e057600080fd5b506100e96107b6565b6040516100f69190610f57565b60405180910390f35b610107610a69565b60006101506000600280602002604051908101604052809291908260028015610145576020028201915b815481526020019060010190808311610131575b5050505050856107da565b9050600061019b6000600280602002604051908101604052809291908260028015610190576020028201915b81548152602001906001019080831161017c575b5050505050856107da565b905060006101f160006002806020026040519081016040528092919082600280156101db576020028201915b8154815260200190600101908083116101c7575b505050505086886101ec9190610fa1565b6107da565b905060006102738460028080602002604051908101604052809291906000905b8282101561026a57838260020201600280602002604051908101604052809291908260028015610256576020028201915b815481526020019060010190808311610242575b505050505081526020019060010190610211565b50505050610427565b905060006102f58460028080602002604051908101604052809291906000905b828210156102ec578382600202016002806020026040519081016040528092919082600280156102d8576020028201915b8154815260200190600101908083116102c4575b505050505081526020019060010190610293565b50505050610427565b905060006103778460028080602002604051908101604052809291906000905b8282101561036e5783826002020160028060200260405190810160405280929190826002801561035a576020028201915b815481526020019060010190808311610346575b505050505081526020019060010190610315565b50505050610427565b9050600061038584846106a2565b905060005b600c811015610416578281600c81106103a6576103a5610ff7565b5b60200201518282600c81106103be576103bd610ff7565b5b602002015114610403576040517f08c379a00000000000000000000000000000000000000000000000000000000081526004016103fa90611083565b60405180910390fd5b808061040e906110a3565b91505061038a565b508097505050505050505092915050565b61042f610a69565b6000600667ffffffffffffffff81111561044c5761044b610c33565b5b60405190808252806020026020018201604052801561047a5781602001602082028036833780820191505090505b5090508360006002811061049157610490610ff7565b5b6020020151816000815181106104aa576104a9610ff7565b5b602002602001018181525050836001600281106104ca576104c9610ff7565b5b6020020151816001815181106104e3576104e2610ff7565b5b6020026020010181815250508260006002811061050357610502610ff7565b5b602002015160006002811061051b5761051a610ff7565b5b60200201518160028151811061053457610533610ff7565b5b6020026020010181815250508260006002811061055457610553610ff7565b5b602002015160016002811061056c5761056b610ff7565b5b60200201518160038151811061058557610584610ff7565b5b602002602001018181525050826001600281106105a5576105a4610ff7565b5b60200201516000600281106105bd576105bc610ff7565b5b6020020151816004815181106105d6576105d5610ff7565b5b602002602001018181525050826001600281106105f6576105f5610ff7565b5b602002015160016002811061060e5761060d610ff7565b5b60200201518160058151811061062757610626610ff7565b5b60200260200101818152505061063b610a69565b60006020600c028260206006026020860160006013600019f1905080610696576040517f08c379a000000000000000000000000000000000000000000000000000000000815260040161068d90611137565b60405180910390fd5b81935050505092915050565b6106aa610a69565b6106b2610a8c565b60005b600c811015610745578481600c81106106d1576106d0610ff7565b5b60200201518282601881106106e9576106e8610ff7565b5b6020020181815250508381600c811061070557610704610ff7565b5b602002015182600c836107189190610fa1565b6018811061072957610728610ff7565b5b602002018181525050808061073d906110a3565b9150506106b5565b50600061030090506000610757610a69565b6020600c0281848660006014600019f19150816107a9576040517f08c379a00000000000000000000000000000000000000000000000000000000081526004016107a0906111c9565b60405180910390fd5b8094505050505092915050565b7f30644e72e131a029b85045b68181585d97816a916871ca8d3c208c16d87cfd4781565b6107e2610aaf565b60008060405180606001604052808660006002811061080457610803610ff7565b5b602002015181526020018660016002811061082257610821610ff7565b5b6020020151815260200185815250905061083a610aaf565b610843866108f8565b15610853578593505050506108f2565b61085c86610951565b61089b576040517f08c379a000000000000000000000000000000000000000000000000000000000815260040161089290611235565b60405180910390fd5b60408160608460006007600019f19250826108eb576040517f08c379a00000000000000000000000000000000000000000000000000000000081526004016108e2906112c7565b60405180910390fd5b8093505050505b92915050565b6000808260006002811061090f5761090e610ff7565b5b6020020151148015610939575060008260016002811061093257610931610ff7565b5b6020020151145b15610947576001905061094c565b600090505b919050565b6000808260006002811061096857610967610ff7565b5b6020020151905060008360016002811061098557610984610ff7565b5b6020020151905060007f30644e72e131a029b85045b68181585d97816a916871ca8d3c208c16d87cfd47806109bd576109bc6112e7565b5b837f30644e72e131a029b85045b68181585d97816a916871ca8d3c208c16d87cfd47806109ed576109ec6112e7565b5b85860909905060007f30644e72e131a029b85045b68181585d97816a916871ca8d3c208c16d87cfd4780610a2457610a236112e7565b5b83840990507f30644e72e131a029b85045b68181585d97816a916871ca8d3c208c16d87cfd4780610a5857610a576112e7565b5b600383088114945050505050919050565b604051806101800160405280600c90602082028036833780820191505090505090565b604051806103000160405280601890602082028036833780820191505090505090565b6040518060400160405280600290602082028036833780820191505090505090565b6000604051905090565b600080fd5b6000819050919050565b610af381610ae0565b8114610afe57600080fd5b50565b600081359050610b1081610aea565b92915050565b60008060408385031215610b2d57610b2c610adb565b5b6000610b3b85828601610b01565b9250506020610b4c85828601610b01565b9150509250929050565b6000600c9050919050565b600081905092915050565b6000819050919050565b610b7f81610ae0565b82525050565b6000610b918383610b76565b60208301905092915050565b6000602082019050919050565b610bb381610b56565b610bbd8184610b61565b9250610bc882610b6c565b8060005b83811015610bf9578151610be08782610b85565b9650610beb83610b9d565b925050600181019050610bcc565b505050505050565b600061018082019050610c176000830184610baa565b92915050565b600080fd5b6000601f19601f8301169050919050565b7f4e487b7100000000000000000000000000000000000000000000000000000000600052604160045260246000fd5b610c6b82610c22565b810181811067ffffffffffffffff82111715610c8a57610c89610c33565b5b80604052505050565b6000610c9d610ad1565b9050610ca98282610c62565b919050565b600067ffffffffffffffff821115610cc957610cc8610c33565b5b602082029050919050565b600080fd5b6000610cec610ce784610cae565b610c93565b90508060208402830185811115610d0657610d05610cd4565b5b835b81811015610d2f5780610d1b8882610b01565b845260208401935050602081019050610d08565b5050509392505050565b600082601f830112610d4e57610d4d610c1d565b5b6002610d5b848285610cd9565b91505092915050565b600067ffffffffffffffff821115610d7f57610d7e610c33565b5b602082029050919050565b6000610d9d610d9884610d64565b610c93565b90508060408402830185811115610db757610db6610cd4565b5b835b81811015610de05780610dcc8882610d39565b845260208401935050604081019050610db9565b5050509392505050565b600082601f830112610dff57610dfe610c1d565b5b6002610e0c848285610d8a565b91505092915050565b60008060c08385031215610e2c57610e2b610adb565b5b6000610e3a85828601610d39565b9250506040610e4b85828601610dea565b9150509250929050565b600067ffffffffffffffff821115610e7057610e6f610c33565b5b602082029050919050565b6000610e8e610e8984610e55565b610c93565b90508060208402830185811115610ea857610ea7610cd4565b5b835b81811015610ed15780610ebd8882610b01565b845260208401935050602081019050610eaa565b5050509392505050565b600082601f830112610ef057610eef610c1d565b5b600c610efd848285610e7b565b91505092915050565b6000806103008385031215610f1e57610f1d610adb565b5b6000610f2c85828601610edb565b925050610180610f3e85828601610edb565b9150509250929050565b610f5181610ae0565b82525050565b6000602082019050610f6c6000830184610f48565b92915050565b7f4e487b7100000000000000000000000000000000000000000000000000000000600052601160045260246000fd5b6000610fac82610ae0565b9150610fb783610ae0565b9250827fffffffffffffffffffffffffffffffffffffffffffffffffffffffffffffffff03821115610fec57610feb610f72565b5b828201905092915050565b7f4e487b7100000000000000000000000000000000000000000000000000000000600052603260045260246000fd5b600082825260208201905092915050565b7f77726f6e672066703132206d756c000000000000000000000000000000000000600082015250565b600061106d600e83611026565b915061107882611037565b602082019050919050565b6000602082019050818103600083015261109c81611060565b9050919050565b60006110ae82610ae0565b91507fffffffffffffffffffffffffffffffffffffffffffffffffffffffffffffffff82036110e0576110df610f72565b5b600182019050919050565b7f70616972696e67206576616c756174696f6e206661696c000000000000000000600082015250565b6000611121601783611026565b915061112c826110eb565b602082019050919050565b6000602082019050818103600083015261115081611114565b9050919050565b7f667031326d756c20707265636f6d70696c6520636f6e74726163742063616c6c60008201527f206661696c000000000000000000000000000000000000000000000000000000602082015250565b60006111b3602583611026565b91506111be82611157565b604082019050919050565b600060208201905081810360008301526111e2816111a6565b9050919050565b7f706f696e74206973206e6f74206f6e2063757276650000000000000000000000600082015250565b600061121f601583611026565b915061122a826111e9565b602082019050919050565b6000602082019050818103600083015261124e81611212565b9050919050565b7f656c6c6970746963206375727665206d756c7469706c69636174696f6e20666160008201527f696c656400000000000000000000000000000000000000000000000000000000602082015250565b60006112b1602483611026565b91506112bc82611255565b604082019050919050565b600060208201905081810360008301526112e0816112a4565b9050919050565b7f4e487b7100000000000000000000000000000000000000000000000000000000600052601260045260246000fdfea26469706673582212201dd46d23ede739faded700c018fd843669a024e80271bcf71e8b2ba035b30c8664736f6c634300080f0033",
  "immutableReferences": {},
  "source": "// SPDX-License-Identifier: MIT\n// solium-disable security/no-assign-params\n\npragma solidity < 0.9.0;\n\ncontract test_fp12{\n    uint public constant p = 21888242871839275222246405745257275088696311157297823662689037894645226208583;\n    uint256[2] gen1 = [\n                uint256(1), uint256(2)\n        ];\n    uint256[2][2] gen2 = [\n            [   11559732032986387107991004021392285783925812861821192530917403151452391805634,\n                10857046999023057135944570762232829481370756359578518086990519993285655852781   ], \n            [   4082367875863433681332203403145435568316851327593401208105741076214120093531,\n                8495653923123431417604973247489272438418190587263600148770280649306958101930]\n        ];\n    \n    function isOnCurve(uint256[2] memory point) internal pure returns (bool) {\n        uint256 x = point[0];\n        uint256 y = point[1];\n\n        uint256 x3 = mulmod(mulmod(x, x, p), x, p);\n        uint256 y2 = mulmod(y, y, p);\n    \n        return y2 == addmod(x3, 3, p);\n    }\n\n    function isInfinity(uint256[2] memory input) internal pure returns (bool) {\n        if (input[0] == 0 && input[1] == 0) return true;\n        else return false;\n    }\n\n    function g1Mul(uint256[2] memory a, uint256 k) internal returns (uint256[2] memory) {\n        bool success;\n        uint256[3] memory input = [a[0], a[1], k];\n        uint256[2] memory result;\n\n        if (isInfinity(a)) return a;\n        require(isOnCurve(a), \"point is not on curve\");\n    \n        assembly {\n        // 0x07     id of the bn256ScalarMul precompile\n        // 0        number of ether to transfer\n        // 96       size of call parameters, i.e. 96 bytes total (256 bit for x, 256 bit for y, 256 bit for scalar)\n        // 64       size of call return value, i.e. 64 bytes / 512 bit for a BN256 curve point\n        success := call(not(0), 0x07, 0, input, 96, result, 64)\n        }\n        require(success, \"elliptic curve multiplication failed\");\n        return result;\n    }\n\n    function pairingEval (uint256[2] memory g1, uint256[2][2] memory g2) public payable returns(uint256[12] memory) {\n        uint256[] memory input = new uint256[](6);\n        input[0] = g1[0];       input[1] = g1[1];\n        input[2] = g2[0][0];    input[3] = g2[0][1];\n        input[4] = g2[1][0];    input[5] = g2[1][1];\n\n        uint256[12] memory output;\n        bool success;\n        assembly {\n            success := call(not(0), 0x13, 0, add(input, 0x20), mul(6, 0x20), output, mul(12, 0x20))\n        }\n        require(success, \"pairing evaluation fail\");\n        return output;\n    }\n\n    function fp12Mul(uint256[12] memory a, uint256[12] memory b) public payable \n    returns (uint256[12] memory) {\n        uint256[24] memory input;\n        for (uint256 i = 0; i < 12; i++) {\n            input[i] = a[i];\n            input[i+12] = b[i];\n        }\n        uint256 len = 24 * 32;\n\n        bool success = false;\n        uint256[12] memory output;\n\n        assembly {\n            success := call(not(0), 0x14, 0, input, len, output, mul(12, 0x20))\n        }\n        require(success, \"fp12mul precompile contract call fail\");\n\n        return output;\n    }\n\n    function fp12Mul_test(uint256 k1, uint256 k2) public payable \n    returns (uint256[12] memory){\n        uint256[2] memory a = g1Mul(gen1, k1);\n        uint256[2] memory b = g1Mul(gen1, k2);\n\n        uint256[2] memory aPlusb = g1Mul(gen1, k1 + k2);\n\n        /* e( k1 * g1 , g2 ) * e( k2 * g1, g2 ) = e( (k1 + k2) * g1, g2 ) */\n        uint256[12] memory e1 = pairingEval(a, gen2);\n        uint256[12] memory e2 = pairingEval(b, gen2);\n        uint256[12] memory e3 = pairingEval(aPlusb, gen2);\n\n        uint256[12] memory output = fp12Mul(e1, e2);\n        for(uint256 i = 0; i < 12; i++)\n            require(output[i] == e3[i], \"wrong fp12 mul\");\n\n        return output;\n    }\n}",
  "sourcePath": "/home/yudonghyun/dev/etherium/truffle/contracts/test_fp12.sol",
  "compiler": {
    "name": "solc",
    "version": "0.8.15+commit.e14f2714.Emscripten.clang"
  },
  "schemaVersion": "3.4.8",
  "updatedAt": "2022-08-25T11:49:18.403Z",
  "networkType": "ethereum",
  "devdoc": {
    "kind": "dev",
    "methods": {},
    "version": 1
  },
  "userdoc": {
    "kind": "user",
    "methods": {},
    "version": 1
  }
}