{
	"dev/etherium/Geth/.solidity/fp12Test.sol": {
		"TestContract": {
			"abi": [
				{
					"anonymous": false,
					"inputs": [
						{
							"indexed": false,
							"internalType": "string",
							"name": "message",
							"type": "string"
						}
					],
					"name": "Debug",
					"type": "event"
				},
				{
					"inputs": [
						{
							"internalType": "uint256[24]",
							"name": "input",
							"type": "uint256[24]"
						}
					],
					"name": "testMe",
					"outputs": [],
					"stateMutability": "nonpayable",
					"type": "function"
				}
			],
			"devdoc": {
				"kind": "dev",
				"methods": {},
				"version": 1
			},
			"evm": {
				"assembly": "    /* \"dev/etherium/Geth/.solidity/fp12Test.sol\":65:349  contract TestContract {... */\n  mstore(0x40, 0x80)\n  callvalue\n  dup1\n  iszero\n  tag_1\n  jumpi\n  0x00\n  dup1\n  revert\ntag_1:\n  pop\n  dataSize(sub_0)\n  dup1\n  dataOffset(sub_0)\n  0x00\n  codecopy\n  0x00\n  return\nstop\n\nsub_0: assembly {\n        /* \"dev/etherium/Geth/.solidity/fp12Test.sol\":65:349  contract TestContract {... */\n      mstore(0x40, 0x80)\n      callvalue\n      dup1\n      iszero\n      tag_1\n      jumpi\n      0x00\n      dup1\n      revert\n    tag_1:\n      pop\n      jumpi(tag_2, lt(calldatasize, 0x04))\n      shr(0xe0, calldataload(0x00))\n      dup1\n      0xa3184692\n      eq\n      tag_3\n      jumpi\n    tag_2:\n      0x00\n      dup1\n      revert\n        /* \"dev/etherium/Geth/.solidity/fp12Test.sol\":124:346  function testMe (uint256[24] calldata input) public {... */\n    tag_3:\n      tag_4\n      0x04\n      dup1\n      calldatasize\n      sub\n      dup2\n      add\n      swap1\n      tag_5\n      swap2\n      swap1\n      tag_6\n      jump\t// in\n    tag_5:\n      tag_7\n      jump\t// in\n    tag_4:\n      stop\n    tag_7:\n        /* \"dev/etherium/Geth/.solidity/fp12Test.sol\":188:216  Debug(\"test bn256Fp12Mul()\") */\n      0x7cdb51e9dbbc205231228146c3246e7f914aa6d4a33170e43ecc8e3593481d1a\n      mload(0x40)\n      tag_9\n      swap1\n      tag_10\n      jump\t// in\n    tag_9:\n      mload(0x40)\n      dup1\n      swap2\n      sub\n      swap1\n      log1\n        /* \"dev/etherium/Geth/.solidity/fp12Test.sol\":292:296  0x40 */\n      0x40\n        /* \"dev/etherium/Geth/.solidity/fp12Test.sol\":289:290  0 */\n      0x00\n        /* \"dev/etherium/Geth/.solidity/fp12Test.sol\":283:287  0x60 */\n      0x60\n        /* \"dev/etherium/Geth/.solidity/fp12Test.sol\":276:281  input */\n      dup4\n        /* \"dev/etherium/Geth/.solidity/fp12Test.sol\":270:274  0x14 */\n      0x14\n        /* \"dev/etherium/Geth/.solidity/fp12Test.sol\":266:267  0 */\n      0x00\n        /* \"dev/etherium/Geth/.solidity/fp12Test.sol\":262:268  not(0) */\n      not\n        /* \"dev/etherium/Geth/.solidity/fp12Test.sol\":251:297  staticcall(not(0), 0x14, input, 0x60, 0, 0x40) */\n      staticcall\n        /* \"dev/etherium/Geth/.solidity/fp12Test.sol\":241:335  if iszero(staticcall(not(0), 0x14, input, 0x60, 0, 0x40)) {... */\n      tag_11\n      jumpi\n        /* \"dev/etherium/Geth/.solidity/fp12Test.sol\":323:324  0 */\n      0x00\n        /* \"dev/etherium/Geth/.solidity/fp12Test.sol\":320:321  0 */\n      dup1\n        /* \"dev/etherium/Geth/.solidity/fp12Test.sol\":313:325  revert(0, 0) */\n      revert\n        /* \"dev/etherium/Geth/.solidity/fp12Test.sol\":241:335  if iszero(staticcall(not(0), 0x14, input, 0x60, 0, 0x40)) {... */\n    tag_11:\n        /* \"dev/etherium/Geth/.solidity/fp12Test.sol\":124:346  function testMe (uint256[24] calldata input) public {... */\n      pop\n      jump\t// out\n        /* \"#utility.yul\":26:276   */\n    tag_13:\n        /* \"#utility.yul\":98:106   */\n      0x00\n        /* \"#utility.yul\":129:135   */\n      dup2\n        /* \"#utility.yul\":117:135   */\n      swap1\n      pop\n        /* \"#utility.yul\":182:185   */\n      dup3\n        /* \"#utility.yul\":174:178   */\n      0x20\n        /* \"#utility.yul\":168:172   */\n      0x18\n        /* \"#utility.yul\":164:179   */\n      mul\n        /* \"#utility.yul\":154:162   */\n      dup3\n        /* \"#utility.yul\":150:180   */\n      add\n        /* \"#utility.yul\":147:186   */\n      gt\n        /* \"#utility.yul\":144:270   */\n      iszero\n      tag_15\n      jumpi\n        /* \"#utility.yul\":189:268   */\n      tag_16\n      tag_17\n      jump\t// in\n    tag_16:\n        /* \"#utility.yul\":144:270   */\n    tag_15:\n        /* \"#utility.yul\":26:276   */\n      swap3\n      swap2\n      pop\n      pop\n      jump\t// out\n        /* \"#utility.yul\":282:664   */\n    tag_6:\n        /* \"#utility.yul\":367:373   */\n      0x00\n        /* \"#utility.yul\":416:419   */\n      0x0300\n        /* \"#utility.yul\":404:413   */\n      dup3\n        /* \"#utility.yul\":395:402   */\n      dup5\n        /* \"#utility.yul\":391:414   */\n      sub\n        /* \"#utility.yul\":387:420   */\n      slt\n        /* \"#utility.yul\":384:504   */\n      iszero\n      tag_19\n      jumpi\n        /* \"#utility.yul\":423:502   */\n      tag_20\n      tag_21\n      jump\t// in\n    tag_20:\n        /* \"#utility.yul\":384:504   */\n    tag_19:\n        /* \"#utility.yul\":543:544   */\n      0x00\n        /* \"#utility.yul\":568:647   */\n      tag_22\n        /* \"#utility.yul\":639:646   */\n      dup5\n        /* \"#utility.yul\":630:636   */\n      dup3\n        /* \"#utility.yul\":619:628   */\n      dup6\n        /* \"#utility.yul\":615:637   */\n      add\n        /* \"#utility.yul\":568:647   */\n      tag_13\n      jump\t// in\n    tag_22:\n        /* \"#utility.yul\":558:647   */\n      swap2\n      pop\n        /* \"#utility.yul\":514:657   */\n      pop\n        /* \"#utility.yul\":282:664   */\n      swap3\n      swap2\n      pop\n      pop\n      jump\t// out\n        /* \"#utility.yul\":670:1036   */\n    tag_23:\n        /* \"#utility.yul\":812:815   */\n      0x00\n        /* \"#utility.yul\":833:900   */\n      tag_25\n        /* \"#utility.yul\":897:899   */\n      0x13\n        /* \"#utility.yul\":892:895   */\n      dup4\n        /* \"#utility.yul\":833:900   */\n      tag_26\n      jump\t// in\n    tag_25:\n        /* \"#utility.yul\":826:900   */\n      swap2\n      pop\n        /* \"#utility.yul\":909:1002   */\n      tag_27\n        /* \"#utility.yul\":998:1001   */\n      dup3\n        /* \"#utility.yul\":909:1002   */\n      tag_28\n      jump\t// in\n    tag_27:\n        /* \"#utility.yul\":1027:1029   */\n      0x20\n        /* \"#utility.yul\":1022:1025   */\n      dup3\n        /* \"#utility.yul\":1018:1030   */\n      add\n        /* \"#utility.yul\":1011:1030   */\n      swap1\n      pop\n        /* \"#utility.yul\":670:1036   */\n      swap2\n      swap1\n      pop\n      jump\t// out\n        /* \"#utility.yul\":1042:1461   */\n    tag_10:\n        /* \"#utility.yul\":1208:1212   */\n      0x00\n        /* \"#utility.yul\":1246:1248   */\n      0x20\n        /* \"#utility.yul\":1235:1244   */\n      dup3\n        /* \"#utility.yul\":1231:1249   */\n      add\n        /* \"#utility.yul\":1223:1249   */\n      swap1\n      pop\n        /* \"#utility.yul\":1295:1304   */\n      dup2\n        /* \"#utility.yul\":1289:1293   */\n      dup2\n        /* \"#utility.yul\":1285:1305   */\n      sub\n        /* \"#utility.yul\":1281:1282   */\n      0x00\n        /* \"#utility.yul\":1270:1279   */\n      dup4\n        /* \"#utility.yul\":1266:1283   */\n      add\n        /* \"#utility.yul\":1259:1306   */\n      mstore\n        /* \"#utility.yul\":1323:1454   */\n      tag_30\n        /* \"#utility.yul\":1449:1453   */\n      dup2\n        /* \"#utility.yul\":1323:1454   */\n      tag_23\n      jump\t// in\n    tag_30:\n        /* \"#utility.yul\":1315:1454   */\n      swap1\n      pop\n        /* \"#utility.yul\":1042:1461   */\n      swap2\n      swap1\n      pop\n      jump\t// out\n        /* \"#utility.yul\":1548:1717   */\n    tag_26:\n        /* \"#utility.yul\":1632:1643   */\n      0x00\n        /* \"#utility.yul\":1666:1672   */\n      dup3\n        /* \"#utility.yul\":1661:1664   */\n      dup3\n        /* \"#utility.yul\":1654:1673   */\n      mstore\n        /* \"#utility.yul\":1706:1710   */\n      0x20\n        /* \"#utility.yul\":1701:1704   */\n      dup3\n        /* \"#utility.yul\":1697:1711   */\n      add\n        /* \"#utility.yul\":1682:1711   */\n      swap1\n      pop\n        /* \"#utility.yul\":1548:1717   */\n      swap3\n      swap2\n      pop\n      pop\n      jump\t// out\n        /* \"#utility.yul\":1723:1840   */\n    tag_17:\n        /* \"#utility.yul\":1832:1833   */\n      0x00\n        /* \"#utility.yul\":1829:1830   */\n      dup1\n        /* \"#utility.yul\":1822:1834   */\n      revert\n        /* \"#utility.yul\":1969:2086   */\n    tag_21:\n        /* \"#utility.yul\":2078:2079   */\n      0x00\n        /* \"#utility.yul\":2075:2076   */\n      dup1\n        /* \"#utility.yul\":2068:2080   */\n      revert\n        /* \"#utility.yul\":2092:2261   */\n    tag_28:\n        /* \"#utility.yul\":2232:2253   */\n      0x7465737420626e323536467031324d756c282900000000000000000000000000\n        /* \"#utility.yul\":2228:2229   */\n      0x00\n        /* \"#utility.yul\":2220:2226   */\n      dup3\n        /* \"#utility.yul\":2216:2230   */\n      add\n        /* \"#utility.yul\":2209:2254   */\n      mstore\n        /* \"#utility.yul\":2092:2261   */\n      pop\n      jump\t// out\n\n    auxdata: 0xa2646970667358221220720713f0dd11fbf5aa4f3b3b7952299e34d7e1442d09f7fa1280608994a26f8464736f6c63430008070033\n}\n",
				"bytecode": {
					"linkReferences": {},
					"object": "608060405234801561001057600080fd5b506101a7806100206000396000f3fe608060405234801561001057600080fd5b506004361061002b5760003560e01c8063a318469214610030575b600080fd5b61004a600480360381019061004591906100bc565b61004c565b005b7f7cdb51e9dbbc205231228146c3246e7f914aa6d4a33170e43ecc8e3593481d1a6040516100799061010d565b60405180910390a1604060006060836014600019fa61009757600080fd5b50565b6000819050826020601802820111156100b6576100b561013e565b5b92915050565b600061030082840312156100d3576100d2610143565b5b60006100e18482850161009a565b91505092915050565b60006100f760138361012d565b915061010282610148565b602082019050919050565b60006020820190508181036000830152610126816100ea565b9050919050565b600082825260208201905092915050565b600080fd5b600080fd5b7f7465737420626e323536467031324d756c28290000000000000000000000000060008201525056fea2646970667358221220720713f0dd11fbf5aa4f3b3b7952299e34d7e1442d09f7fa1280608994a26f8464736f6c63430008070033",
					"opcodes": "PUSH1 0x80 PUSH1 0x40 MSTORE CALLVALUE DUP1 ISZERO PUSH2 0x10 JUMPI PUSH1 0x0 DUP1 REVERT JUMPDEST POP PUSH2 0x1A7 DUP1 PUSH2 0x20 PUSH1 0x0 CODECOPY PUSH1 0x0 RETURN INVALID PUSH1 0x80 PUSH1 0x40 MSTORE CALLVALUE DUP1 ISZERO PUSH2 0x10 JUMPI PUSH1 0x0 DUP1 REVERT JUMPDEST POP PUSH1 0x4 CALLDATASIZE LT PUSH2 0x2B JUMPI PUSH1 0x0 CALLDATALOAD PUSH1 0xE0 SHR DUP1 PUSH4 0xA3184692 EQ PUSH2 0x30 JUMPI JUMPDEST PUSH1 0x0 DUP1 REVERT JUMPDEST PUSH2 0x4A PUSH1 0x4 DUP1 CALLDATASIZE SUB DUP2 ADD SWAP1 PUSH2 0x45 SWAP2 SWAP1 PUSH2 0xBC JUMP JUMPDEST PUSH2 0x4C JUMP JUMPDEST STOP JUMPDEST PUSH32 0x7CDB51E9DBBC205231228146C3246E7F914AA6D4A33170E43ECC8E3593481D1A PUSH1 0x40 MLOAD PUSH2 0x79 SWAP1 PUSH2 0x10D JUMP JUMPDEST PUSH1 0x40 MLOAD DUP1 SWAP2 SUB SWAP1 LOG1 PUSH1 0x40 PUSH1 0x0 PUSH1 0x60 DUP4 PUSH1 0x14 PUSH1 0x0 NOT STATICCALL PUSH2 0x97 JUMPI PUSH1 0x0 DUP1 REVERT JUMPDEST POP JUMP JUMPDEST PUSH1 0x0 DUP2 SWAP1 POP DUP3 PUSH1 0x20 PUSH1 0x18 MUL DUP3 ADD GT ISZERO PUSH2 0xB6 JUMPI PUSH2 0xB5 PUSH2 0x13E JUMP JUMPDEST JUMPDEST SWAP3 SWAP2 POP POP JUMP JUMPDEST PUSH1 0x0 PUSH2 0x300 DUP3 DUP5 SUB SLT ISZERO PUSH2 0xD3 JUMPI PUSH2 0xD2 PUSH2 0x143 JUMP JUMPDEST JUMPDEST PUSH1 0x0 PUSH2 0xE1 DUP5 DUP3 DUP6 ADD PUSH2 0x9A JUMP JUMPDEST SWAP2 POP POP SWAP3 SWAP2 POP POP JUMP JUMPDEST PUSH1 0x0 PUSH2 0xF7 PUSH1 0x13 DUP4 PUSH2 0x12D JUMP JUMPDEST SWAP2 POP PUSH2 0x102 DUP3 PUSH2 0x148 JUMP JUMPDEST PUSH1 0x20 DUP3 ADD SWAP1 POP SWAP2 SWAP1 POP JUMP JUMPDEST PUSH1 0x0 PUSH1 0x20 DUP3 ADD SWAP1 POP DUP2 DUP2 SUB PUSH1 0x0 DUP4 ADD MSTORE PUSH2 0x126 DUP2 PUSH2 0xEA JUMP JUMPDEST SWAP1 POP SWAP2 SWAP1 POP JUMP JUMPDEST PUSH1 0x0 DUP3 DUP3 MSTORE PUSH1 0x20 DUP3 ADD SWAP1 POP SWAP3 SWAP2 POP POP JUMP JUMPDEST PUSH1 0x0 DUP1 REVERT JUMPDEST PUSH1 0x0 DUP1 REVERT JUMPDEST PUSH32 0x7465737420626E323536467031324D756C282900000000000000000000000000 PUSH1 0x0 DUP3 ADD MSTORE POP JUMP INVALID LOG2 PUSH5 0x6970667358 0x22 SLT KECCAK256 PUSH19 0x713F0DD11FBF5AA4F3B3B7952299E34D7E144 0x2D MULMOD 0xF7 STATICCALL SLT DUP1 PUSH1 0x89 SWAP5 LOG2 PUSH16 0x8464736F6C6343000807003300000000 "
				},
				"gasEstimates": {
					"creation": {
						"codeDepositCost": "84600",
						"executionCost": "135",
						"totalCost": "84735"
					},
					"external": {
						"testMe(uint256[24])": "infinite"
					}
				},
				"methodIdentifiers": {
					"testMe(uint256[24])": "a3184692"
				}
			},
			"storageLayout": {
				"storage": [],
				"types": null
			},
			"userdoc": {
				"kind": "user",
				"methods": {},
				"version": 1
			}
		}
	}
}