{
	"dev/etherium/Geth/.solidity/fp12CallTest.sol": {
		"Testcontract": {
			"abi": [
				{
					"anonymous": false,
					"inputs": [
						{
							"indexed": false,
							"internalType": "string",
							"name": "message",
							"type": "string"
						},
						{
							"indexed": false,
							"internalType": "uint256[12]",
							"name": "res",
							"type": "uint256[12]"
						}
					],
					"name": "Debug",
					"type": "event"
				},
				{
					"inputs": [
						{
							"internalType": "uint256[24]",
							"name": "input",
							"type": "uint256[24]"
						}
					],
					"name": "test",
					"outputs": [],
					"stateMutability": "nonpayable",
					"type": "function"
				}
			],
			"devdoc": {
				"kind": "dev",
				"methods": {},
				"version": 1
			},
			"evm": {
				"assembly": "    /* \"dev/etherium/Geth/.solidity/fp12CallTest.sol\":191:491  contract Testcontract {... */\n  mstore(0x40, 0x80)\n    /* \"dev/etherium/Geth/.solidity/fp12CallTest.sol\":316:358  0x0000000000000000000000000000000000000014 */\n  0x14\n    /* \"dev/etherium/Geth/.solidity/fp12CallTest.sol\":287:359  Precompile prec = Precompile(0x0000000000000000000000000000000000000014) */\n  0x0c\n  exp(0x0100, 0x00)\n  dup2\n  sload\n  dup2\n  0xffffffffffffffffffffffffffffffffffffffff\n  mul\n  not\n  and\n  swap1\n  dup4\n  0xffffffffffffffffffffffffffffffffffffffff\n  and\n  mul\n  or\n  swap1\n  sstore\n  pop\n    /* \"dev/etherium/Geth/.solidity/fp12CallTest.sol\":191:491  contract Testcontract {... */\n  callvalue\n  dup1\n  iszero\n  tag_1\n  jumpi\n  0x00\n  dup1\n  revert\ntag_1:\n  pop\n  dataSize(sub_0)\n  dup1\n  dataOffset(sub_0)\n  0x00\n  codecopy\n  0x00\n  return\nstop\n\nsub_0: assembly {\n        /* \"dev/etherium/Geth/.solidity/fp12CallTest.sol\":191:491  contract Testcontract {... */\n      mstore(0x40, 0x80)\n      callvalue\n      dup1\n      iszero\n      tag_1\n      jumpi\n      0x00\n      dup1\n      revert\n    tag_1:\n      pop\n      jumpi(tag_2, lt(calldatasize, 0x04))\n      shr(0xe0, calldataload(0x00))\n      dup1\n      0x9c166699\n      eq\n      tag_3\n      jumpi\n    tag_2:\n      0x00\n      dup1\n      revert\n        /* \"dev/etherium/Geth/.solidity/fp12CallTest.sol\":364:488  function test (uint256[24] calldata input) public {... */\n    tag_3:\n      tag_4\n      0x04\n      dup1\n      calldatasize\n      sub\n      dup2\n      add\n      swap1\n      tag_5\n      swap2\n      swap1\n      tag_6\n      jump\t// in\n    tag_5:\n      tag_7\n      jump\t// in\n    tag_4:\n      stop\n    tag_7:\n        /* \"dev/etherium/Geth/.solidity/fp12CallTest.sol\":427:431  prec */\n      0x0c\n      0x00\n      swap1\n      sload\n      swap1\n      0x0100\n      exp\n      swap1\n      div\n      0xffffffffffffffffffffffffffffffffffffffff\n      and\n        /* \"dev/etherium/Geth/.solidity/fp12CallTest.sol\":427:444  prec.bn256Fp12Mul */\n      0xffffffffffffffffffffffffffffffffffffffff\n      and\n      0xbf045e45\n        /* \"dev/etherium/Geth/.solidity/fp12CallTest.sol\":445:450  input */\n      dup3\n        /* \"dev/etherium/Geth/.solidity/fp12CallTest.sol\":427:451  prec.bn256Fp12Mul(input) */\n      mload(0x40)\n      dup3\n      0xffffffff\n      and\n      0xe0\n      shl\n      dup2\n      mstore\n      0x04\n      add\n      tag_9\n      swap2\n      swap1\n      tag_10\n      jump\t// in\n    tag_9:\n      0x0180\n      mload(0x40)\n      dup1\n      dup4\n      sub\n      dup2\n      0x00\n      dup8\n      dup1\n      extcodesize\n      iszero\n      dup1\n      iszero\n      tag_11\n      jumpi\n      0x00\n      dup1\n      revert\n    tag_11:\n      pop\n      gas\n      call\n      iszero\n      dup1\n      iszero\n      tag_13\n      jumpi\n      returndatasize\n      0x00\n      dup1\n      returndatacopy\n      revert(0x00, returndatasize)\n    tag_13:\n      pop\n      pop\n      pop\n      pop\n      mload(0x40)\n      returndatasize\n      not(0x1f)\n      0x1f\n      dup3\n      add\n      and\n      dup3\n      add\n      dup1\n      0x40\n      mstore\n      pop\n      dup2\n      add\n      swap1\n      tag_14\n      swap2\n      swap1\n      tag_15\n      jump\t// in\n    tag_14:\n        /* \"dev/etherium/Geth/.solidity/fp12CallTest.sol\":420:424  last */\n      0x00\n        /* \"dev/etherium/Geth/.solidity/fp12CallTest.sol\":420:451  last = prec.bn256Fp12Mul(input) */\n      swap1\n      0x0c\n      tag_16\n      swap3\n      swap2\n      swap1\n      tag_17\n      jump\t// in\n    tag_16:\n      pop\n        /* \"dev/etherium/Geth/.solidity/fp12CallTest.sol\":462:483  Debug(\"test()\", last) */\n      0xf0d4a1629a0681756c95c5243aa3ad529fe6b539a6fa2185de2119abb74bdaf3\n        /* \"dev/etherium/Geth/.solidity/fp12CallTest.sol\":478:482  last */\n      0x00\n        /* \"dev/etherium/Geth/.solidity/fp12CallTest.sol\":462:483  Debug(\"test()\", last) */\n      mload(0x40)\n      tag_18\n      swap2\n      swap1\n      tag_19\n      jump\t// in\n    tag_18:\n      mload(0x40)\n      dup1\n      swap2\n      sub\n      swap1\n      log1\n        /* \"dev/etherium/Geth/.solidity/fp12CallTest.sol\":364:488  function test (uint256[24] calldata input) public {... */\n      pop\n      jump\t// out\n    tag_17:\n      dup3\n      0x0c\n      dup2\n      add\n      swap3\n      dup3\n      iszero\n      tag_20\n      jumpi\n      swap2\n      0x20\n      mul\n      dup3\n      add\n    tag_21:\n      dup3\n      dup2\n      gt\n      iszero\n      tag_22\n      jumpi\n      dup3\n      mload\n      dup3\n      sstore\n      swap2\n      0x20\n      add\n      swap2\n      swap1\n      0x01\n      add\n      swap1\n      jump(tag_21)\n    tag_22:\n    tag_20:\n      pop\n      swap1\n      pop\n      tag_23\n      swap2\n      swap1\n      tag_24\n      jump\t// in\n    tag_23:\n      pop\n      swap1\n      jump\t// out\n    tag_24:\n    tag_25:\n      dup1\n      dup3\n      gt\n      iszero\n      tag_26\n      jumpi\n      0x00\n      dup2\n      0x00\n      swap1\n      sstore\n      pop\n      0x01\n      add\n      jump(tag_25)\n    tag_26:\n      pop\n      swap1\n      jump\t// out\n        /* \"#utility.yul\":26:705   */\n    tag_28:\n        /* \"#utility.yul\":132:137   */\n      0x00\n        /* \"#utility.yul\":157:237   */\n      tag_30\n        /* \"#utility.yul\":173:236   */\n      tag_31\n        /* \"#utility.yul\":229:235   */\n      dup5\n        /* \"#utility.yul\":173:236   */\n      tag_32\n      jump\t// in\n    tag_31:\n        /* \"#utility.yul\":157:237   */\n      tag_33\n      jump\t// in\n    tag_30:\n        /* \"#utility.yul\":148:237   */\n      swap1\n      pop\n        /* \"#utility.yul\":257:262   */\n      dup1\n        /* \"#utility.yul\":283:289   */\n      dup3\n        /* \"#utility.yul\":333:336   */\n      dup6\n        /* \"#utility.yul\":325:329   */\n      0x20\n        /* \"#utility.yul\":317:323   */\n      dup7\n        /* \"#utility.yul\":313:330   */\n      mul\n        /* \"#utility.yul\":308:311   */\n      dup3\n        /* \"#utility.yul\":304:331   */\n      add\n        /* \"#utility.yul\":301:337   */\n      gt\n        /* \"#utility.yul\":298:441   */\n      iszero\n      tag_34\n      jumpi\n        /* \"#utility.yul\":352:431   */\n      tag_35\n      tag_36\n      jump\t// in\n    tag_35:\n        /* \"#utility.yul\":298:441   */\n    tag_34:\n        /* \"#utility.yul\":465:466   */\n      0x00\n        /* \"#utility.yul\":450:699   */\n    tag_37:\n        /* \"#utility.yul\":475:481   */\n      dup6\n        /* \"#utility.yul\":472:473   */\n      dup2\n        /* \"#utility.yul\":469:482   */\n      lt\n        /* \"#utility.yul\":450:699   */\n      iszero\n      tag_39\n      jumpi\n        /* \"#utility.yul\":543:546   */\n      dup2\n        /* \"#utility.yul\":572:620   */\n      tag_40\n        /* \"#utility.yul\":616:619   */\n      dup9\n        /* \"#utility.yul\":604:614   */\n      dup3\n        /* \"#utility.yul\":572:620   */\n      tag_41\n      jump\t// in\n    tag_40:\n        /* \"#utility.yul\":567:570   */\n      dup5\n        /* \"#utility.yul\":560:621   */\n      mstore\n        /* \"#utility.yul\":650:654   */\n      0x20\n        /* \"#utility.yul\":645:648   */\n      dup5\n        /* \"#utility.yul\":641:655   */\n      add\n        /* \"#utility.yul\":634:655   */\n      swap4\n      pop\n        /* \"#utility.yul\":684:688   */\n      0x20\n        /* \"#utility.yul\":679:682   */\n      dup4\n        /* \"#utility.yul\":675:689   */\n      add\n        /* \"#utility.yul\":668:689   */\n      swap3\n      pop\n        /* \"#utility.yul\":510:699   */\n      pop\n        /* \"#utility.yul\":497:498   */\n      0x01\n        /* \"#utility.yul\":494:495   */\n      dup2\n        /* \"#utility.yul\":490:499   */\n      add\n        /* \"#utility.yul\":485:499   */\n      swap1\n      pop\n        /* \"#utility.yul\":450:699   */\n      jump(tag_37)\n    tag_39:\n        /* \"#utility.yul\":454:468   */\n      pop\n        /* \"#utility.yul\":138:705   */\n      pop\n      pop\n        /* \"#utility.yul\":26:705   */\n      swap4\n      swap3\n      pop\n      pop\n      pop\n      jump\t// out\n        /* \"#utility.yul\":730:1093   */\n    tag_42:\n        /* \"#utility.yul\":811:816   */\n      0x00\n        /* \"#utility.yul\":860:863   */\n      dup3\n        /* \"#utility.yul\":853:857   */\n      0x1f\n        /* \"#utility.yul\":845:851   */\n      dup4\n        /* \"#utility.yul\":841:858   */\n      add\n        /* \"#utility.yul\":837:864   */\n      slt\n        /* \"#utility.yul\":827:949   */\n      tag_44\n      jumpi\n        /* \"#utility.yul\":868:947   */\n      tag_45\n      tag_46\n      jump\t// in\n    tag_45:\n        /* \"#utility.yul\":827:949   */\n    tag_44:\n        /* \"#utility.yul\":972:976   */\n      0x0c\n        /* \"#utility.yul\":994:1087   */\n      tag_47\n        /* \"#utility.yul\":1083:1086   */\n      dup5\n        /* \"#utility.yul\":1075:1081   */\n      dup3\n        /* \"#utility.yul\":1067:1073   */\n      dup6\n        /* \"#utility.yul\":994:1087   */\n      tag_28\n      jump\t// in\n    tag_47:\n        /* \"#utility.yul\":985:1087   */\n      swap2\n      pop\n        /* \"#utility.yul\":817:1093   */\n      pop\n        /* \"#utility.yul\":730:1093   */\n      swap3\n      swap2\n      pop\n      pop\n      jump\t// out\n        /* \"#utility.yul\":1118:1368   */\n    tag_48:\n        /* \"#utility.yul\":1190:1198   */\n      0x00\n        /* \"#utility.yul\":1221:1227   */\n      dup2\n        /* \"#utility.yul\":1209:1227   */\n      swap1\n      pop\n        /* \"#utility.yul\":1274:1277   */\n      dup3\n        /* \"#utility.yul\":1266:1270   */\n      0x20\n        /* \"#utility.yul\":1260:1264   */\n      0x18\n        /* \"#utility.yul\":1256:1271   */\n      mul\n        /* \"#utility.yul\":1246:1254   */\n      dup3\n        /* \"#utility.yul\":1242:1272   */\n      add\n        /* \"#utility.yul\":1239:1278   */\n      gt\n        /* \"#utility.yul\":1236:1362   */\n      iszero\n      tag_50\n      jumpi\n        /* \"#utility.yul\":1281:1360   */\n      tag_51\n      tag_36\n      jump\t// in\n    tag_51:\n        /* \"#utility.yul\":1236:1362   */\n    tag_50:\n        /* \"#utility.yul\":1118:1368   */\n      swap3\n      swap2\n      pop\n      pop\n      jump\t// out\n        /* \"#utility.yul\":1374:1517   */\n    tag_41:\n        /* \"#utility.yul\":1431:1436   */\n      0x00\n        /* \"#utility.yul\":1462:1468   */\n      dup2\n        /* \"#utility.yul\":1456:1469   */\n      mload\n        /* \"#utility.yul\":1447:1469   */\n      swap1\n      pop\n        /* \"#utility.yul\":1478:1511   */\n      tag_53\n        /* \"#utility.yul\":1505:1510   */\n      dup2\n        /* \"#utility.yul\":1478:1511   */\n      tag_54\n      jump\t// in\n    tag_53:\n        /* \"#utility.yul\":1374:1517   */\n      swap3\n      swap2\n      pop\n      pop\n      jump\t// out\n        /* \"#utility.yul\":1523:1923   */\n    tag_15:\n        /* \"#utility.yul\":1617:1623   */\n      0x00\n        /* \"#utility.yul\":1666:1669   */\n      0x0180\n        /* \"#utility.yul\":1654:1663   */\n      dup3\n        /* \"#utility.yul\":1645:1652   */\n      dup5\n        /* \"#utility.yul\":1641:1664   */\n      sub\n        /* \"#utility.yul\":1637:1670   */\n      slt\n        /* \"#utility.yul\":1634:1754   */\n      iszero\n      tag_56\n      jumpi\n        /* \"#utility.yul\":1673:1752   */\n      tag_57\n      tag_58\n      jump\t// in\n    tag_57:\n        /* \"#utility.yul\":1634:1754   */\n    tag_56:\n        /* \"#utility.yul\":1793:1794   */\n      0x00\n        /* \"#utility.yul\":1818:1906   */\n      tag_59\n        /* \"#utility.yul\":1898:1905   */\n      dup5\n        /* \"#utility.yul\":1889:1895   */\n      dup3\n        /* \"#utility.yul\":1878:1887   */\n      dup6\n        /* \"#utility.yul\":1874:1896   */\n      add\n        /* \"#utility.yul\":1818:1906   */\n      tag_42\n      jump\t// in\n    tag_59:\n        /* \"#utility.yul\":1808:1906   */\n      swap2\n      pop\n        /* \"#utility.yul\":1764:1916   */\n      pop\n        /* \"#utility.yul\":1523:1923   */\n      swap3\n      swap2\n      pop\n      pop\n      jump\t// out\n        /* \"#utility.yul\":1929:2311   */\n    tag_6:\n        /* \"#utility.yul\":2014:2020   */\n      0x00\n        /* \"#utility.yul\":2063:2066   */\n      0x0300\n        /* \"#utility.yul\":2051:2060   */\n      dup3\n        /* \"#utility.yul\":2042:2049   */\n      dup5\n        /* \"#utility.yul\":2038:2061   */\n      sub\n        /* \"#utility.yul\":2034:2067   */\n      slt\n        /* \"#utility.yul\":2031:2151   */\n      iszero\n      tag_61\n      jumpi\n        /* \"#utility.yul\":2070:2149   */\n      tag_62\n      tag_58\n      jump\t// in\n    tag_62:\n        /* \"#utility.yul\":2031:2151   */\n    tag_61:\n        /* \"#utility.yul\":2190:2191   */\n      0x00\n        /* \"#utility.yul\":2215:2294   */\n      tag_63\n        /* \"#utility.yul\":2286:2293   */\n      dup5\n        /* \"#utility.yul\":2277:2283   */\n      dup3\n        /* \"#utility.yul\":2266:2275   */\n      dup6\n        /* \"#utility.yul\":2262:2284   */\n      add\n        /* \"#utility.yul\":2215:2294   */\n      tag_48\n      jump\t// in\n    tag_63:\n        /* \"#utility.yul\":2205:2294   */\n      swap2\n      pop\n        /* \"#utility.yul\":2161:2304   */\n      pop\n        /* \"#utility.yul\":1929:2311   */\n      swap3\n      swap2\n      pop\n      pop\n      jump\t// out\n        /* \"#utility.yul\":2317:2496   */\n    tag_64:\n        /* \"#utility.yul\":2386:2396   */\n      0x00\n        /* \"#utility.yul\":2407:2453   */\n      tag_66\n        /* \"#utility.yul\":2449:2452   */\n      dup4\n        /* \"#utility.yul\":2441:2447   */\n      dup4\n        /* \"#utility.yul\":2407:2453   */\n      tag_67\n      jump\t// in\n    tag_66:\n        /* \"#utility.yul\":2485:2489   */\n      0x20\n        /* \"#utility.yul\":2480:2483   */\n      dup4\n        /* \"#utility.yul\":2476:2490   */\n      add\n        /* \"#utility.yul\":2462:2490   */\n      swap1\n      pop\n        /* \"#utility.yul\":2317:2496   */\n      swap3\n      swap2\n      pop\n      pop\n      jump\t// out\n        /* \"#utility.yul\":2536:3255   */\n    tag_68:\n        /* \"#utility.yul\":2671:2721   */\n      tag_70\n        /* \"#utility.yul\":2715:2720   */\n      dup2\n        /* \"#utility.yul\":2671:2721   */\n      tag_71\n      jump\t// in\n    tag_70:\n        /* \"#utility.yul\":2737:2822   */\n      tag_72\n        /* \"#utility.yul\":2815:2821   */\n      dup2\n        /* \"#utility.yul\":2810:2813   */\n      dup5\n        /* \"#utility.yul\":2737:2822   */\n      tag_73\n      jump\t// in\n    tag_72:\n        /* \"#utility.yul\":2730:2822   */\n      swap3\n      pop\n        /* \"#utility.yul\":2846:2898   */\n      tag_74\n        /* \"#utility.yul\":2892:2897   */\n      dup3\n        /* \"#utility.yul\":2846:2898   */\n      tag_75\n      jump\t// in\n    tag_74:\n        /* \"#utility.yul\":2921:2928   */\n      dup1\n        /* \"#utility.yul\":2952:2953   */\n      0x00\n        /* \"#utility.yul\":2937:3248   */\n    tag_76:\n        /* \"#utility.yul\":2962:2968   */\n      dup4\n        /* \"#utility.yul\":2959:2960   */\n      dup2\n        /* \"#utility.yul\":2956:2969   */\n      lt\n        /* \"#utility.yul\":2937:3248   */\n      iszero\n      tag_78\n      jumpi\n        /* \"#utility.yul\":3032:3076   */\n      tag_79\n        /* \"#utility.yul\":3069:3075   */\n      dup3\n        /* \"#utility.yul\":3032:3076   */\n      tag_80\n      jump\t// in\n    tag_79:\n        /* \"#utility.yul\":3096:3159   */\n      tag_81\n        /* \"#utility.yul\":3155:3158   */\n      dup8\n        /* \"#utility.yul\":3140:3153   */\n      dup3\n        /* \"#utility.yul\":3096:3159   */\n      tag_64\n      jump\t// in\n    tag_81:\n        /* \"#utility.yul\":3089:3159   */\n      swap7\n      pop\n        /* \"#utility.yul\":3182:3238   */\n      tag_82\n        /* \"#utility.yul\":3231:3237   */\n      dup4\n        /* \"#utility.yul\":3182:3238   */\n      tag_83\n      jump\t// in\n    tag_82:\n        /* \"#utility.yul\":3172:3238   */\n      swap3\n      pop\n        /* \"#utility.yul\":2997:3248   */\n      pop\n        /* \"#utility.yul\":2984:2985   */\n      0x01\n        /* \"#utility.yul\":2981:2982   */\n      dup2\n        /* \"#utility.yul\":2977:2986   */\n      add\n        /* \"#utility.yul\":2972:2986   */\n      swap1\n      pop\n        /* \"#utility.yul\":2937:3248   */\n      jump(tag_76)\n    tag_78:\n        /* \"#utility.yul\":2941:2955   */\n      pop\n        /* \"#utility.yul\":2647:3255   */\n      pop\n      pop\n      pop\n        /* \"#utility.yul\":2536:3255   */\n      pop\n      pop\n      jump\t// out\n        /* \"#utility.yul\":3295:3469   */\n    tag_84:\n        /* \"#utility.yul\":3420:3463   */\n      tag_86\n        /* \"#utility.yul\":3456:3462   */\n      0x0300\n        /* \"#utility.yul\":3451:3454   */\n      dup4\n        /* \"#utility.yul\":3444:3449   */\n      dup4\n        /* \"#utility.yul\":3420:3463   */\n      tag_87\n      jump\t// in\n    tag_86:\n        /* \"#utility.yul\":3295:3469   */\n      pop\n      pop\n      jump\t// out\n        /* \"#utility.yul\":3475:3840   */\n    tag_88:\n        /* \"#utility.yul\":3617:3620   */\n      0x00\n        /* \"#utility.yul\":3638:3704   */\n      tag_90\n        /* \"#utility.yul\":3702:3703   */\n      0x06\n        /* \"#utility.yul\":3697:3700   */\n      dup4\n        /* \"#utility.yul\":3638:3704   */\n      tag_91\n      jump\t// in\n    tag_90:\n        /* \"#utility.yul\":3631:3704   */\n      swap2\n      pop\n        /* \"#utility.yul\":3713:3806   */\n      tag_92\n        /* \"#utility.yul\":3802:3805   */\n      dup3\n        /* \"#utility.yul\":3713:3806   */\n      tag_93\n      jump\t// in\n    tag_92:\n        /* \"#utility.yul\":3831:3833   */\n      0x20\n        /* \"#utility.yul\":3826:3829   */\n      dup3\n        /* \"#utility.yul\":3822:3834   */\n      add\n        /* \"#utility.yul\":3815:3834   */\n      swap1\n      pop\n        /* \"#utility.yul\":3475:3840   */\n      swap2\n      swap1\n      pop\n      jump\t// out\n        /* \"#utility.yul\":3846:3954   */\n    tag_67:\n        /* \"#utility.yul\":3923:3947   */\n      tag_95\n        /* \"#utility.yul\":3941:3946   */\n      dup2\n        /* \"#utility.yul\":3923:3947   */\n      tag_96\n      jump\t// in\n    tag_95:\n        /* \"#utility.yul\":3918:3921   */\n      dup3\n        /* \"#utility.yul\":3911:3948   */\n      mstore\n        /* \"#utility.yul\":3846:3954   */\n      pop\n      pop\n      jump\t// out\n        /* \"#utility.yul\":3960:4283   */\n    tag_10:\n        /* \"#utility.yul\":4103:4107   */\n      0x00\n        /* \"#utility.yul\":4141:4144   */\n      0x0300\n        /* \"#utility.yul\":4130:4139   */\n      dup3\n        /* \"#utility.yul\":4126:4145   */\n      add\n        /* \"#utility.yul\":4118:4145   */\n      swap1\n      pop\n        /* \"#utility.yul\":4155:4276   */\n      tag_98\n        /* \"#utility.yul\":4273:4274   */\n      0x00\n        /* \"#utility.yul\":4262:4271   */\n      dup4\n        /* \"#utility.yul\":4258:4275   */\n      add\n        /* \"#utility.yul\":4249:4255   */\n      dup5\n        /* \"#utility.yul\":4155:4276   */\n      tag_84\n      jump\t// in\n    tag_98:\n        /* \"#utility.yul\":3960:4283   */\n      swap3\n      swap2\n      pop\n      pop\n      jump\t// out\n        /* \"#utility.yul\":4289:4909   */\n    tag_19:\n        /* \"#utility.yul\":4528:4532   */\n      0x00\n        /* \"#utility.yul\":4566:4569   */\n      0x01a0\n        /* \"#utility.yul\":4555:4564   */\n      dup3\n        /* \"#utility.yul\":4551:4570   */\n      add\n        /* \"#utility.yul\":4543:4570   */\n      swap1\n      pop\n        /* \"#utility.yul\":4616:4625   */\n      dup2\n        /* \"#utility.yul\":4610:4614   */\n      dup2\n        /* \"#utility.yul\":4606:4626   */\n      sub\n        /* \"#utility.yul\":4602:4603   */\n      0x00\n        /* \"#utility.yul\":4591:4600   */\n      dup4\n        /* \"#utility.yul\":4587:4604   */\n      add\n        /* \"#utility.yul\":4580:4627   */\n      mstore\n        /* \"#utility.yul\":4644:4775   */\n      tag_100\n        /* \"#utility.yul\":4770:4774   */\n      dup2\n        /* \"#utility.yul\":4644:4775   */\n      tag_88\n      jump\t// in\n    tag_100:\n        /* \"#utility.yul\":4636:4775   */\n      swap1\n      pop\n        /* \"#utility.yul\":4785:4902   */\n      tag_101\n        /* \"#utility.yul\":4898:4900   */\n      0x20\n        /* \"#utility.yul\":4887:4896   */\n      dup4\n        /* \"#utility.yul\":4883:4901   */\n      add\n        /* \"#utility.yul\":4874:4880   */\n      dup5\n        /* \"#utility.yul\":4785:4902   */\n      tag_68\n      jump\t// in\n    tag_101:\n        /* \"#utility.yul\":4289:4909   */\n      swap3\n      swap2\n      pop\n      pop\n      jump\t// out\n        /* \"#utility.yul\":4915:5044   */\n    tag_33:\n        /* \"#utility.yul\":4949:4955   */\n      0x00\n        /* \"#utility.yul\":4976:4996   */\n      tag_103\n      tag_104\n      jump\t// in\n    tag_103:\n        /* \"#utility.yul\":4966:4996   */\n      swap1\n      pop\n        /* \"#utility.yul\":5005:5038   */\n      tag_105\n        /* \"#utility.yul\":5033:5037   */\n      dup3\n        /* \"#utility.yul\":5025:5031   */\n      dup3\n        /* \"#utility.yul\":5005:5038   */\n      tag_106\n      jump\t// in\n    tag_105:\n        /* \"#utility.yul\":4915:5044   */\n      swap2\n      swap1\n      pop\n      jump\t// out\n        /* \"#utility.yul\":5050:5125   */\n    tag_104:\n        /* \"#utility.yul\":5083:5089   */\n      0x00\n        /* \"#utility.yul\":5116:5118   */\n      0x40\n        /* \"#utility.yul\":5110:5119   */\n      mload\n        /* \"#utility.yul\":5100:5119   */\n      swap1\n      pop\n        /* \"#utility.yul\":5050:5125   */\n      swap1\n      jump\t// out\n        /* \"#utility.yul\":5131:5381   */\n    tag_32:\n        /* \"#utility.yul\":5207:5211   */\n      0x00\n        /* \"#utility.yul\":5297:5315   */\n      0xffffffffffffffff\n        /* \"#utility.yul\":5289:5295   */\n      dup3\n        /* \"#utility.yul\":5286:5316   */\n      gt\n        /* \"#utility.yul\":5283:5339   */\n      iszero\n      tag_109\n      jumpi\n        /* \"#utility.yul\":5319:5337   */\n      tag_110\n      tag_111\n      jump\t// in\n    tag_110:\n        /* \"#utility.yul\":5283:5339   */\n    tag_109:\n        /* \"#utility.yul\":5369:5373   */\n      0x20\n        /* \"#utility.yul\":5361:5367   */\n      dup3\n        /* \"#utility.yul\":5357:5374   */\n      mul\n        /* \"#utility.yul\":5349:5374   */\n      swap1\n      pop\n        /* \"#utility.yul\":5131:5381   */\n      swap2\n      swap1\n      pop\n      jump\t// out\n        /* \"#utility.yul\":5387:5483   */\n    tag_75:\n        /* \"#utility.yul\":5450:5454   */\n      0x00\n        /* \"#utility.yul\":5473:5476   */\n      dup2\n        /* \"#utility.yul\":5465:5476   */\n      swap1\n      pop\n        /* \"#utility.yul\":5387:5483   */\n      swap2\n      swap1\n      pop\n      jump\t// out\n        /* \"#utility.yul\":5489:5591   */\n    tag_71:\n        /* \"#utility.yul\":5552:5558   */\n      0x00\n        /* \"#utility.yul\":5580:5584   */\n      0x0c\n        /* \"#utility.yul\":5570:5584   */\n      swap1\n      pop\n        /* \"#utility.yul\":5489:5591   */\n      swap2\n      swap1\n      pop\n      jump\t// out\n        /* \"#utility.yul\":5597:5706   */\n    tag_83:\n        /* \"#utility.yul\":5663:5667   */\n      0x00\n        /* \"#utility.yul\":5695:5699   */\n      0x01\n        /* \"#utility.yul\":5690:5693   */\n      dup3\n        /* \"#utility.yul\":5686:5700   */\n      add\n        /* \"#utility.yul\":5678:5700   */\n      swap1\n      pop\n        /* \"#utility.yul\":5597:5706   */\n      swap2\n      swap1\n      pop\n      jump\t// out\n        /* \"#utility.yul\":5712:5856   */\n    tag_73:\n        /* \"#utility.yul\":5810:5821   */\n      0x00\n        /* \"#utility.yul\":5847:5850   */\n      dup2\n        /* \"#utility.yul\":5832:5850   */\n      swap1\n      pop\n        /* \"#utility.yul\":5712:5856   */\n      swap3\n      swap2\n      pop\n      pop\n      jump\t// out\n        /* \"#utility.yul\":5862:6031   */\n    tag_91:\n        /* \"#utility.yul\":5946:5957   */\n      0x00\n        /* \"#utility.yul\":5980:5986   */\n      dup3\n        /* \"#utility.yul\":5975:5978   */\n      dup3\n        /* \"#utility.yul\":5968:5987   */\n      mstore\n        /* \"#utility.yul\":6020:6024   */\n      0x20\n        /* \"#utility.yul\":6015:6018   */\n      dup3\n        /* \"#utility.yul\":6011:6025   */\n      add\n        /* \"#utility.yul\":5996:6025   */\n      swap1\n      pop\n        /* \"#utility.yul\":5862:6031   */\n      swap3\n      swap2\n      pop\n      pop\n      jump\t// out\n        /* \"#utility.yul\":6037:6127   */\n    tag_117:\n        /* \"#utility.yul\":6087:6094   */\n      0x00\n        /* \"#utility.yul\":6116:6121   */\n      dup2\n        /* \"#utility.yul\":6105:6121   */\n      swap1\n      pop\n        /* \"#utility.yul\":6037:6127   */\n      swap2\n      swap1\n      pop\n      jump\t// out\n        /* \"#utility.yul\":6133:6210   */\n    tag_96:\n        /* \"#utility.yul\":6170:6177   */\n      0x00\n        /* \"#utility.yul\":6199:6204   */\n      dup2\n        /* \"#utility.yul\":6188:6204   */\n      swap1\n      pop\n        /* \"#utility.yul\":6133:6210   */\n      swap2\n      swap1\n      pop\n      jump\t// out\n        /* \"#utility.yul\":6216:6370   */\n    tag_87:\n        /* \"#utility.yul\":6300:6306   */\n      dup3\n        /* \"#utility.yul\":6295:6298   */\n      dup2\n        /* \"#utility.yul\":6290:6293   */\n      dup4\n        /* \"#utility.yul\":6277:6307   */\n      calldatacopy\n        /* \"#utility.yul\":6362:6363   */\n      0x00\n        /* \"#utility.yul\":6353:6359   */\n      dup4\n        /* \"#utility.yul\":6348:6351   */\n      dup4\n        /* \"#utility.yul\":6344:6360   */\n      add\n        /* \"#utility.yul\":6337:6364   */\n      mstore\n        /* \"#utility.yul\":6216:6370   */\n      pop\n      pop\n      pop\n      jump\t// out\n        /* \"#utility.yul\":6376:6542   */\n    tag_121:\n        /* \"#utility.yul\":6445:6450   */\n      0x00\n        /* \"#utility.yul\":6470:6536   */\n      tag_123\n        /* \"#utility.yul\":6501:6535   */\n      tag_124\n        /* \"#utility.yul\":6524:6534   */\n      dup4\n        /* \"#utility.yul\":6501:6535   */\n      tag_125\n      jump\t// in\n    tag_124:\n        /* \"#utility.yul\":6470:6536   */\n      tag_117\n      jump\t// in\n    tag_123:\n        /* \"#utility.yul\":6461:6536   */\n      swap1\n      pop\n        /* \"#utility.yul\":6376:6542   */\n      swap2\n      swap1\n      pop\n      jump\t// out\n        /* \"#utility.yul\":6548:6829   */\n    tag_106:\n        /* \"#utility.yul\":6631:6658   */\n      tag_127\n        /* \"#utility.yul\":6653:6657   */\n      dup3\n        /* \"#utility.yul\":6631:6658   */\n      tag_128\n      jump\t// in\n    tag_127:\n        /* \"#utility.yul\":6623:6629   */\n      dup2\n        /* \"#utility.yul\":6619:6659   */\n      add\n        /* \"#utility.yul\":6761:6767   */\n      dup2\n        /* \"#utility.yul\":6749:6759   */\n      dup2\n        /* \"#utility.yul\":6746:6768   */\n      lt\n        /* \"#utility.yul\":6725:6743   */\n      0xffffffffffffffff\n        /* \"#utility.yul\":6713:6723   */\n      dup3\n        /* \"#utility.yul\":6710:6744   */\n      gt\n        /* \"#utility.yul\":6707:6769   */\n      or\n        /* \"#utility.yul\":6704:6792   */\n      iszero\n      tag_129\n      jumpi\n        /* \"#utility.yul\":6772:6790   */\n      tag_130\n      tag_111\n      jump\t// in\n    tag_130:\n        /* \"#utility.yul\":6704:6792   */\n    tag_129:\n        /* \"#utility.yul\":6812:6822   */\n      dup1\n        /* \"#utility.yul\":6808:6810   */\n      0x40\n        /* \"#utility.yul\":6801:6823   */\n      mstore\n        /* \"#utility.yul\":6591:6829   */\n      pop\n        /* \"#utility.yul\":6548:6829   */\n      pop\n      pop\n      jump\t// out\n        /* \"#utility.yul\":6835:7015   */\n    tag_111:\n        /* \"#utility.yul\":6883:6960   */\n      0x4e487b7100000000000000000000000000000000000000000000000000000000\n        /* \"#utility.yul\":6880:6881   */\n      0x00\n        /* \"#utility.yul\":6873:6961   */\n      mstore\n        /* \"#utility.yul\":6980:6984   */\n      0x41\n        /* \"#utility.yul\":6977:6978   */\n      0x04\n        /* \"#utility.yul\":6970:6985   */\n      mstore\n        /* \"#utility.yul\":7004:7008   */\n      0x24\n        /* \"#utility.yul\":7001:7002   */\n      0x00\n        /* \"#utility.yul\":6994:7009   */\n      revert\n        /* \"#utility.yul\":7021:7165   */\n    tag_80:\n        /* \"#utility.yul\":7076:7081   */\n      0x00\n        /* \"#utility.yul\":7101:7158   */\n      tag_133\n        /* \"#utility.yul\":7152:7156   */\n      dup3\n        /* \"#utility.yul\":7146:7157   */\n      sload\n        /* \"#utility.yul\":7101:7158   */\n      tag_121\n      jump\t// in\n    tag_133:\n        /* \"#utility.yul\":7092:7158   */\n      swap1\n      pop\n        /* \"#utility.yul\":7021:7165   */\n      swap2\n      swap1\n      pop\n      jump\t// out\n        /* \"#utility.yul\":7171:7288   */\n    tag_46:\n        /* \"#utility.yul\":7280:7281   */\n      0x00\n        /* \"#utility.yul\":7277:7278   */\n      dup1\n        /* \"#utility.yul\":7270:7282   */\n      revert\n        /* \"#utility.yul\":7294:7411   */\n    tag_36:\n        /* \"#utility.yul\":7403:7404   */\n      0x00\n        /* \"#utility.yul\":7400:7401   */\n      dup1\n        /* \"#utility.yul\":7393:7405   */\n      revert\n        /* \"#utility.yul\":7540:7657   */\n    tag_58:\n        /* \"#utility.yul\":7649:7650   */\n      0x00\n        /* \"#utility.yul\":7646:7647   */\n      dup1\n        /* \"#utility.yul\":7639:7651   */\n      revert\n        /* \"#utility.yul\":7663:7765   */\n    tag_128:\n        /* \"#utility.yul\":7704:7710   */\n      0x00\n        /* \"#utility.yul\":7755:7757   */\n      0x1f\n        /* \"#utility.yul\":7751:7758   */\n      not\n        /* \"#utility.yul\":7746:7748   */\n      0x1f\n        /* \"#utility.yul\":7739:7744   */\n      dup4\n        /* \"#utility.yul\":7735:7749   */\n      add\n        /* \"#utility.yul\":7731:7759   */\n      and\n        /* \"#utility.yul\":7721:7759   */\n      swap1\n      pop\n        /* \"#utility.yul\":7663:7765   */\n      swap2\n      swap1\n      pop\n      jump\t// out\n        /* \"#utility.yul\":7771:7873   */\n    tag_125:\n        /* \"#utility.yul\":7813:7821   */\n      0x00\n        /* \"#utility.yul\":7860:7865   */\n      dup2\n        /* \"#utility.yul\":7857:7858   */\n      0x00\n        /* \"#utility.yul\":7853:7866   */\n      shr\n        /* \"#utility.yul\":7832:7866   */\n      swap1\n      pop\n        /* \"#utility.yul\":7771:7873   */\n      swap2\n      swap1\n      pop\n      jump\t// out\n        /* \"#utility.yul\":7879:8035   */\n    tag_93:\n        /* \"#utility.yul\":8019:8027   */\n      0x7465737428290000000000000000000000000000000000000000000000000000\n        /* \"#utility.yul\":8015:8016   */\n      0x00\n        /* \"#utility.yul\":8007:8013   */\n      dup3\n        /* \"#utility.yul\":8003:8017   */\n      add\n        /* \"#utility.yul\":7996:8028   */\n      mstore\n        /* \"#utility.yul\":7879:8035   */\n      pop\n      jump\t// out\n        /* \"#utility.yul\":8041:8163   */\n    tag_54:\n        /* \"#utility.yul\":8114:8138   */\n      tag_143\n        /* \"#utility.yul\":8132:8137   */\n      dup2\n        /* \"#utility.yul\":8114:8138   */\n      tag_96\n      jump\t// in\n    tag_143:\n        /* \"#utility.yul\":8107:8112   */\n      dup2\n        /* \"#utility.yul\":8104:8139   */\n      eq\n        /* \"#utility.yul\":8094:8157   */\n      tag_144\n      jumpi\n        /* \"#utility.yul\":8153:8154   */\n      0x00\n        /* \"#utility.yul\":8150:8151   */\n      dup1\n        /* \"#utility.yul\":8143:8155   */\n      revert\n        /* \"#utility.yul\":8094:8157   */\n    tag_144:\n        /* \"#utility.yul\":8041:8163   */\n      pop\n      jump\t// out\n\n    auxdata: 0xa26469706673582212207f979db3449ebae362439918b2d96239ecf3b820676fa58e928d015bd75aa38364736f6c63430008070033\n}\n",
				"bytecode": {
					"linkReferences": {},
					"object": "60806040526014600c60006101000a81548173ffffffffffffffffffffffffffffffffffffffff021916908373ffffffffffffffffffffffffffffffffffffffff16021790555034801561005257600080fd5b506105a8806100626000396000f3fe608060405234801561001057600080fd5b506004361061002b5760003560e01c80639c16669914610030575b600080fd5b61004a6004803603810190610045919061029a565b61004c565b005b600c60009054906101000a900473ffffffffffffffffffffffffffffffffffffffff1673ffffffffffffffffffffffffffffffffffffffff1663bf045e45826040518263ffffffff1660e01b81526004016100a79190610381565b61018060405180830381600087803b1580156100c257600080fd5b505af11580156100d6573d6000803e3d6000fd5b505050506040513d601f19601f820116820180604052508101906100fa919061026c565b600090600c61010a929190610146565b507ff0d4a1629a0681756c95c5243aa3ad529fe6b539a6fa2185de2119abb74bdaf3600060405161013b919061039d565b60405180910390a150565b82600c8101928215610175579160200282015b82811115610174578251825591602001919060010190610159565b5b5090506101829190610186565b5090565b5b8082111561019f576000816000905550600101610187565b5090565b60006101b66101b1846103f1565b6103cc565b905080828560208602820111156101d0576101cf61050a565b5b60005b8581101561020057816101e68882610257565b8452602084019350602083019250506001810190506101d3565b5050509392505050565b600082601f83011261021f5761021e610505565b5b600c61022c8482856101a3565b91505092915050565b6000819050826020601802820111156102515761025061050a565b5b92915050565b6000815190506102668161055b565b92915050565b600061018082840312156102835761028261050f565b5b60006102918482850161020a565b91505092915050565b600061030082840312156102b1576102b061050f565b5b60006102bf84828501610235565b91505092915050565b60006102d48383610372565b60208301905092915050565b6102e981610421565b6102f38184610439565b92506102fe82610417565b8060005b8381101561033657610313826104f2565b61031d87826102c8565b96506103288361042c565b925050600181019050610302565b505050505050565b61034b6103008383610469565b5050565b600061035c600683610444565b915061036782610532565b602082019050919050565b61037b8161045f565b82525050565b600061030082019050610397600083018461033e565b92915050565b60006101a08201905081810360008301526103b78161034f565b90506103c660208301846102e0565b92915050565b60006103d66103e7565b90506103e28282610492565b919050565b6000604051905090565b600067ffffffffffffffff82111561040c5761040b6104c3565b5b602082029050919050565b6000819050919050565b6000600c9050919050565b6000600182019050919050565b600081905092915050565b600082825260208201905092915050565b6000819050919050565b6000819050919050565b82818337600083830152505050565b600061048b61048683610525565b610455565b9050919050565b61049b82610514565b810181811067ffffffffffffffff821117156104ba576104b96104c3565b5b80604052505050565b7f4e487b7100000000000000000000000000000000000000000000000000000000600052604160045260246000fd5b60006104fe8254610478565b9050919050565b600080fd5b600080fd5b600080fd5b6000601f19601f8301169050919050565b60008160001c9050919050565b7f7465737428290000000000000000000000000000000000000000000000000000600082015250565b6105648161045f565b811461056f57600080fd5b5056fea26469706673582212207f979db3449ebae362439918b2d96239ecf3b820676fa58e928d015bd75aa38364736f6c63430008070033",
					"opcodes": "PUSH1 0x80 PUSH1 0x40 MSTORE PUSH1 0x14 PUSH1 0xC PUSH1 0x0 PUSH2 0x100 EXP DUP2 SLOAD DUP2 PUSH20 0xFFFFFFFFFFFFFFFFFFFFFFFFFFFFFFFFFFFFFFFF MUL NOT AND SWAP1 DUP4 PUSH20 0xFFFFFFFFFFFFFFFFFFFFFFFFFFFFFFFFFFFFFFFF AND MUL OR SWAP1 SSTORE POP CALLVALUE DUP1 ISZERO PUSH2 0x52 JUMPI PUSH1 0x0 DUP1 REVERT JUMPDEST POP PUSH2 0x5A8 DUP1 PUSH2 0x62 PUSH1 0x0 CODECOPY PUSH1 0x0 RETURN INVALID PUSH1 0x80 PUSH1 0x40 MSTORE CALLVALUE DUP1 ISZERO PUSH2 0x10 JUMPI PUSH1 0x0 DUP1 REVERT JUMPDEST POP PUSH1 0x4 CALLDATASIZE LT PUSH2 0x2B JUMPI PUSH1 0x0 CALLDATALOAD PUSH1 0xE0 SHR DUP1 PUSH4 0x9C166699 EQ PUSH2 0x30 JUMPI JUMPDEST PUSH1 0x0 DUP1 REVERT JUMPDEST PUSH2 0x4A PUSH1 0x4 DUP1 CALLDATASIZE SUB DUP2 ADD SWAP1 PUSH2 0x45 SWAP2 SWAP1 PUSH2 0x29A JUMP JUMPDEST PUSH2 0x4C JUMP JUMPDEST STOP JUMPDEST PUSH1 0xC PUSH1 0x0 SWAP1 SLOAD SWAP1 PUSH2 0x100 EXP SWAP1 DIV PUSH20 0xFFFFFFFFFFFFFFFFFFFFFFFFFFFFFFFFFFFFFFFF AND PUSH20 0xFFFFFFFFFFFFFFFFFFFFFFFFFFFFFFFFFFFFFFFF AND PUSH4 0xBF045E45 DUP3 PUSH1 0x40 MLOAD DUP3 PUSH4 0xFFFFFFFF AND PUSH1 0xE0 SHL DUP2 MSTORE PUSH1 0x4 ADD PUSH2 0xA7 SWAP2 SWAP1 PUSH2 0x381 JUMP JUMPDEST PUSH2 0x180 PUSH1 0x40 MLOAD DUP1 DUP4 SUB DUP2 PUSH1 0x0 DUP8 DUP1 EXTCODESIZE ISZERO DUP1 ISZERO PUSH2 0xC2 JUMPI PUSH1 0x0 DUP1 REVERT JUMPDEST POP GAS CALL ISZERO DUP1 ISZERO PUSH2 0xD6 JUMPI RETURNDATASIZE PUSH1 0x0 DUP1 RETURNDATACOPY RETURNDATASIZE PUSH1 0x0 REVERT JUMPDEST POP POP POP POP PUSH1 0x40 MLOAD RETURNDATASIZE PUSH1 0x1F NOT PUSH1 0x1F DUP3 ADD AND DUP3 ADD DUP1 PUSH1 0x40 MSTORE POP DUP2 ADD SWAP1 PUSH2 0xFA SWAP2 SWAP1 PUSH2 0x26C JUMP JUMPDEST PUSH1 0x0 SWAP1 PUSH1 0xC PUSH2 0x10A SWAP3 SWAP2 SWAP1 PUSH2 0x146 JUMP JUMPDEST POP PUSH32 0xF0D4A1629A0681756C95C5243AA3AD529FE6B539A6FA2185DE2119ABB74BDAF3 PUSH1 0x0 PUSH1 0x40 MLOAD PUSH2 0x13B SWAP2 SWAP1 PUSH2 0x39D JUMP JUMPDEST PUSH1 0x40 MLOAD DUP1 SWAP2 SUB SWAP1 LOG1 POP JUMP JUMPDEST DUP3 PUSH1 0xC DUP2 ADD SWAP3 DUP3 ISZERO PUSH2 0x175 JUMPI SWAP2 PUSH1 0x20 MUL DUP3 ADD JUMPDEST DUP3 DUP2 GT ISZERO PUSH2 0x174 JUMPI DUP3 MLOAD DUP3 SSTORE SWAP2 PUSH1 0x20 ADD SWAP2 SWAP1 PUSH1 0x1 ADD SWAP1 PUSH2 0x159 JUMP JUMPDEST JUMPDEST POP SWAP1 POP PUSH2 0x182 SWAP2 SWAP1 PUSH2 0x186 JUMP JUMPDEST POP SWAP1 JUMP JUMPDEST JUMPDEST DUP1 DUP3 GT ISZERO PUSH2 0x19F JUMPI PUSH1 0x0 DUP2 PUSH1 0x0 SWAP1 SSTORE POP PUSH1 0x1 ADD PUSH2 0x187 JUMP JUMPDEST POP SWAP1 JUMP JUMPDEST PUSH1 0x0 PUSH2 0x1B6 PUSH2 0x1B1 DUP5 PUSH2 0x3F1 JUMP JUMPDEST PUSH2 0x3CC JUMP JUMPDEST SWAP1 POP DUP1 DUP3 DUP6 PUSH1 0x20 DUP7 MUL DUP3 ADD GT ISZERO PUSH2 0x1D0 JUMPI PUSH2 0x1CF PUSH2 0x50A JUMP JUMPDEST JUMPDEST PUSH1 0x0 JUMPDEST DUP6 DUP2 LT ISZERO PUSH2 0x200 JUMPI DUP2 PUSH2 0x1E6 DUP9 DUP3 PUSH2 0x257 JUMP JUMPDEST DUP5 MSTORE PUSH1 0x20 DUP5 ADD SWAP4 POP PUSH1 0x20 DUP4 ADD SWAP3 POP POP PUSH1 0x1 DUP2 ADD SWAP1 POP PUSH2 0x1D3 JUMP JUMPDEST POP POP POP SWAP4 SWAP3 POP POP POP JUMP JUMPDEST PUSH1 0x0 DUP3 PUSH1 0x1F DUP4 ADD SLT PUSH2 0x21F JUMPI PUSH2 0x21E PUSH2 0x505 JUMP JUMPDEST JUMPDEST PUSH1 0xC PUSH2 0x22C DUP5 DUP3 DUP6 PUSH2 0x1A3 JUMP JUMPDEST SWAP2 POP POP SWAP3 SWAP2 POP POP JUMP JUMPDEST PUSH1 0x0 DUP2 SWAP1 POP DUP3 PUSH1 0x20 PUSH1 0x18 MUL DUP3 ADD GT ISZERO PUSH2 0x251 JUMPI PUSH2 0x250 PUSH2 0x50A JUMP JUMPDEST JUMPDEST SWAP3 SWAP2 POP POP JUMP JUMPDEST PUSH1 0x0 DUP2 MLOAD SWAP1 POP PUSH2 0x266 DUP2 PUSH2 0x55B JUMP JUMPDEST SWAP3 SWAP2 POP POP JUMP JUMPDEST PUSH1 0x0 PUSH2 0x180 DUP3 DUP5 SUB SLT ISZERO PUSH2 0x283 JUMPI PUSH2 0x282 PUSH2 0x50F JUMP JUMPDEST JUMPDEST PUSH1 0x0 PUSH2 0x291 DUP5 DUP3 DUP6 ADD PUSH2 0x20A JUMP JUMPDEST SWAP2 POP POP SWAP3 SWAP2 POP POP JUMP JUMPDEST PUSH1 0x0 PUSH2 0x300 DUP3 DUP5 SUB SLT ISZERO PUSH2 0x2B1 JUMPI PUSH2 0x2B0 PUSH2 0x50F JUMP JUMPDEST JUMPDEST PUSH1 0x0 PUSH2 0x2BF DUP5 DUP3 DUP6 ADD PUSH2 0x235 JUMP JUMPDEST SWAP2 POP POP SWAP3 SWAP2 POP POP JUMP JUMPDEST PUSH1 0x0 PUSH2 0x2D4 DUP4 DUP4 PUSH2 0x372 JUMP JUMPDEST PUSH1 0x20 DUP4 ADD SWAP1 POP SWAP3 SWAP2 POP POP JUMP JUMPDEST PUSH2 0x2E9 DUP2 PUSH2 0x421 JUMP JUMPDEST PUSH2 0x2F3 DUP2 DUP5 PUSH2 0x439 JUMP JUMPDEST SWAP3 POP PUSH2 0x2FE DUP3 PUSH2 0x417 JUMP JUMPDEST DUP1 PUSH1 0x0 JUMPDEST DUP4 DUP2 LT ISZERO PUSH2 0x336 JUMPI PUSH2 0x313 DUP3 PUSH2 0x4F2 JUMP JUMPDEST PUSH2 0x31D DUP8 DUP3 PUSH2 0x2C8 JUMP JUMPDEST SWAP7 POP PUSH2 0x328 DUP4 PUSH2 0x42C JUMP JUMPDEST SWAP3 POP POP PUSH1 0x1 DUP2 ADD SWAP1 POP PUSH2 0x302 JUMP JUMPDEST POP POP POP POP POP POP JUMP JUMPDEST PUSH2 0x34B PUSH2 0x300 DUP4 DUP4 PUSH2 0x469 JUMP JUMPDEST POP POP JUMP JUMPDEST PUSH1 0x0 PUSH2 0x35C PUSH1 0x6 DUP4 PUSH2 0x444 JUMP JUMPDEST SWAP2 POP PUSH2 0x367 DUP3 PUSH2 0x532 JUMP JUMPDEST PUSH1 0x20 DUP3 ADD SWAP1 POP SWAP2 SWAP1 POP JUMP JUMPDEST PUSH2 0x37B DUP2 PUSH2 0x45F JUMP JUMPDEST DUP3 MSTORE POP POP JUMP JUMPDEST PUSH1 0x0 PUSH2 0x300 DUP3 ADD SWAP1 POP PUSH2 0x397 PUSH1 0x0 DUP4 ADD DUP5 PUSH2 0x33E JUMP JUMPDEST SWAP3 SWAP2 POP POP JUMP JUMPDEST PUSH1 0x0 PUSH2 0x1A0 DUP3 ADD SWAP1 POP DUP2 DUP2 SUB PUSH1 0x0 DUP4 ADD MSTORE PUSH2 0x3B7 DUP2 PUSH2 0x34F JUMP JUMPDEST SWAP1 POP PUSH2 0x3C6 PUSH1 0x20 DUP4 ADD DUP5 PUSH2 0x2E0 JUMP JUMPDEST SWAP3 SWAP2 POP POP JUMP JUMPDEST PUSH1 0x0 PUSH2 0x3D6 PUSH2 0x3E7 JUMP JUMPDEST SWAP1 POP PUSH2 0x3E2 DUP3 DUP3 PUSH2 0x492 JUMP JUMPDEST SWAP2 SWAP1 POP JUMP JUMPDEST PUSH1 0x0 PUSH1 0x40 MLOAD SWAP1 POP SWAP1 JUMP JUMPDEST PUSH1 0x0 PUSH8 0xFFFFFFFFFFFFFFFF DUP3 GT ISZERO PUSH2 0x40C JUMPI PUSH2 0x40B PUSH2 0x4C3 JUMP JUMPDEST JUMPDEST PUSH1 0x20 DUP3 MUL SWAP1 POP SWAP2 SWAP1 POP JUMP JUMPDEST PUSH1 0x0 DUP2 SWAP1 POP SWAP2 SWAP1 POP JUMP JUMPDEST PUSH1 0x0 PUSH1 0xC SWAP1 POP SWAP2 SWAP1 POP JUMP JUMPDEST PUSH1 0x0 PUSH1 0x1 DUP3 ADD SWAP1 POP SWAP2 SWAP1 POP JUMP JUMPDEST PUSH1 0x0 DUP2 SWAP1 POP SWAP3 SWAP2 POP POP JUMP JUMPDEST PUSH1 0x0 DUP3 DUP3 MSTORE PUSH1 0x20 DUP3 ADD SWAP1 POP SWAP3 SWAP2 POP POP JUMP JUMPDEST PUSH1 0x0 DUP2 SWAP1 POP SWAP2 SWAP1 POP JUMP JUMPDEST PUSH1 0x0 DUP2 SWAP1 POP SWAP2 SWAP1 POP JUMP JUMPDEST DUP3 DUP2 DUP4 CALLDATACOPY PUSH1 0x0 DUP4 DUP4 ADD MSTORE POP POP POP JUMP JUMPDEST PUSH1 0x0 PUSH2 0x48B PUSH2 0x486 DUP4 PUSH2 0x525 JUMP JUMPDEST PUSH2 0x455 JUMP JUMPDEST SWAP1 POP SWAP2 SWAP1 POP JUMP JUMPDEST PUSH2 0x49B DUP3 PUSH2 0x514 JUMP JUMPDEST DUP2 ADD DUP2 DUP2 LT PUSH8 0xFFFFFFFFFFFFFFFF DUP3 GT OR ISZERO PUSH2 0x4BA JUMPI PUSH2 0x4B9 PUSH2 0x4C3 JUMP JUMPDEST JUMPDEST DUP1 PUSH1 0x40 MSTORE POP POP POP JUMP JUMPDEST PUSH32 0x4E487B7100000000000000000000000000000000000000000000000000000000 PUSH1 0x0 MSTORE PUSH1 0x41 PUSH1 0x4 MSTORE PUSH1 0x24 PUSH1 0x0 REVERT JUMPDEST PUSH1 0x0 PUSH2 0x4FE DUP3 SLOAD PUSH2 0x478 JUMP JUMPDEST SWAP1 POP SWAP2 SWAP1 POP JUMP JUMPDEST PUSH1 0x0 DUP1 REVERT JUMPDEST PUSH1 0x0 DUP1 REVERT JUMPDEST PUSH1 0x0 DUP1 REVERT JUMPDEST PUSH1 0x0 PUSH1 0x1F NOT PUSH1 0x1F DUP4 ADD AND SWAP1 POP SWAP2 SWAP1 POP JUMP JUMPDEST PUSH1 0x0 DUP2 PUSH1 0x0 SHR SWAP1 POP SWAP2 SWAP1 POP JUMP JUMPDEST PUSH32 0x7465737428290000000000000000000000000000000000000000000000000000 PUSH1 0x0 DUP3 ADD MSTORE POP JUMP JUMPDEST PUSH2 0x564 DUP2 PUSH2 0x45F JUMP JUMPDEST DUP2 EQ PUSH2 0x56F JUMPI PUSH1 0x0 DUP1 REVERT JUMPDEST POP JUMP INVALID LOG2 PUSH5 0x6970667358 0x22 SLT KECCAK256 PUSH32 0x979DB3449EBAE362439918B2D96239ECF3B820676FA58E928D015BD75AA38364 PUSH20 0x6F6C634300080700330000000000000000000000 "
				},
				"gasEstimates": {
					"creation": {
						"codeDepositCost": "289600",
						"executionCost": "24598",
						"totalCost": "314198"
					},
					"external": {
						"test(uint256[24])": "infinite"
					}
				},
				"methodIdentifiers": {
					"test(uint256[24])": "9c166699"
				}
			},
			"storageLayout": {
				"storage": [
					{
						"astId": 17,
						"contract": "dev/etherium/Geth/.solidity/fp12CallTest.sol:Testcontract",
						"label": "last",
						"offset": 0,
						"slot": "0",
						"type": "t_array(t_uint256)12_storage"
					},
					{
						"astId": 31,
						"contract": "dev/etherium/Geth/.solidity/fp12CallTest.sol:Testcontract",
						"label": "prec",
						"offset": 0,
						"slot": "12",
						"type": "t_contract(Precompile)13"
					}
				],
				"types": {
					"t_array(t_uint256)12_storage": {
						"base": "t_uint256",
						"encoding": "inplace",
						"label": "uint256[12]",
						"numberOfBytes": "384"
					},
					"t_contract(Precompile)13": {
						"encoding": "inplace",
						"label": "contract Precompile",
						"numberOfBytes": "20"
					},
					"t_uint256": {
						"encoding": "inplace",
						"label": "uint256",
						"numberOfBytes": "32"
					}
				}
			},
			"userdoc": {
				"kind": "user",
				"methods": {},
				"version": 1
			}
		}
	}
}